{
  "address": "0xCf7Ed3AccA5a467e9e704C703E8D87F634fB0Fc9",
  "abi": [
    {
      "inputs": [
        {
          "internalType": "contract IVotes",
          "name": "_token",
          "type": "address"
        },
        {
          "internalType": "contract TimelockController",
          "name": "_timelock",
          "type": "address"
        },
        {
          "internalType": "uint48",
          "name": "_votingDelay",
          "type": "uint48"
        },
        {
          "internalType": "uint32",
          "name": "_votingPeriod",
          "type": "uint32"
        },
        {
          "internalType": "uint256",
          "name": "_quorumPercentage",
          "type": "uint256"
        }
      ],
      "stateMutability": "nonpayable",
      "type": "constructor"
    },
    {
      "inputs": [],
      "name": "CheckpointUnorderedInsertion",
      "type": "error"
    },
    {
      "inputs": [],
      "name": "FailedInnerCall",
      "type": "error"
    },
    {
      "inputs": [
        {
          "internalType": "address",
          "name": "voter",
          "type": "address"
        }
      ],
      "name": "GovernorAlreadyCastVote",
      "type": "error"
    },
    {
      "inputs": [
        {
          "internalType": "uint256",
          "name": "proposalId",
          "type": "uint256"
        }
      ],
      "name": "GovernorAlreadyQueuedProposal",
      "type": "error"
    },
    {
      "inputs": [],
      "name": "GovernorDisabledDeposit",
      "type": "error"
    },
    {
      "inputs": [
        {
          "internalType": "address",
          "name": "proposer",
          "type": "address"
        },
        {
          "internalType": "uint256",
          "name": "votes",
          "type": "uint256"
        },
        {
          "internalType": "uint256",
          "name": "threshold",
          "type": "uint256"
        }
      ],
      "name": "GovernorInsufficientProposerVotes",
      "type": "error"
    },
    {
      "inputs": [
        {
          "internalType": "uint256",
          "name": "targets",
          "type": "uint256"
        },
        {
          "internalType": "uint256",
          "name": "calldatas",
          "type": "uint256"
        },
        {
          "internalType": "uint256",
          "name": "values",
          "type": "uint256"
        }
      ],
      "name": "GovernorInvalidProposalLength",
      "type": "error"
    },
    {
      "inputs": [
        {
          "internalType": "uint256",
          "name": "quorumNumerator",
          "type": "uint256"
        },
        {
          "internalType": "uint256",
          "name": "quorumDenominator",
          "type": "uint256"
        }
      ],
      "name": "GovernorInvalidQuorumFraction",
      "type": "error"
    },
    {
      "inputs": [
        {
          "internalType": "address",
          "name": "voter",
          "type": "address"
        }
      ],
      "name": "GovernorInvalidSignature",
      "type": "error"
    },
    {
      "inputs": [],
      "name": "GovernorInvalidVoteType",
      "type": "error"
    },
    {
      "inputs": [
        {
          "internalType": "uint256",
          "name": "votingPeriod",
          "type": "uint256"
        }
      ],
      "name": "GovernorInvalidVotingPeriod",
      "type": "error"
    },
    {
      "inputs": [
        {
          "internalType": "uint256",
          "name": "proposalId",
          "type": "uint256"
        }
      ],
      "name": "GovernorNonexistentProposal",
      "type": "error"
    },
    {
      "inputs": [
        {
          "internalType": "uint256",
          "name": "proposalId",
          "type": "uint256"
        }
      ],
      "name": "GovernorNotQueuedProposal",
      "type": "error"
    },
    {
      "inputs": [
        {
          "internalType": "address",
          "name": "account",
          "type": "address"
        }
      ],
      "name": "GovernorOnlyExecutor",
      "type": "error"
    },
    {
      "inputs": [
        {
          "internalType": "address",
          "name": "account",
          "type": "address"
        }
      ],
      "name": "GovernorOnlyProposer",
      "type": "error"
    },
    {
      "inputs": [],
      "name": "GovernorQueueNotImplemented",
      "type": "error"
    },
    {
      "inputs": [
        {
          "internalType": "address",
          "name": "proposer",
          "type": "address"
        }
      ],
      "name": "GovernorRestrictedProposer",
      "type": "error"
    },
    {
      "inputs": [
        {
          "internalType": "uint256",
          "name": "proposalId",
          "type": "uint256"
        },
        {
          "internalType": "enum IGovernor.ProposalState",
          "name": "current",
          "type": "uint8"
        },
        {
          "internalType": "bytes32",
          "name": "expectedStates",
          "type": "bytes32"
        }
      ],
      "name": "GovernorUnexpectedProposalState",
      "type": "error"
    },
    {
      "inputs": [
        {
          "internalType": "address",
          "name": "account",
          "type": "address"
        },
        {
          "internalType": "uint256",
          "name": "currentNonce",
          "type": "uint256"
        }
      ],
      "name": "InvalidAccountNonce",
      "type": "error"
    },
    {
      "inputs": [],
      "name": "InvalidShortString",
      "type": "error"
    },
    {
      "inputs": [],
      "name": "QueueEmpty",
      "type": "error"
    },
    {
      "inputs": [],
      "name": "QueueFull",
      "type": "error"
    },
    {
      "inputs": [
        {
          "internalType": "uint8",
          "name": "bits",
          "type": "uint8"
        },
        {
          "internalType": "uint256",
          "name": "value",
          "type": "uint256"
        }
      ],
      "name": "SafeCastOverflowedUintDowncast",
      "type": "error"
    },
    {
      "inputs": [
        {
          "internalType": "string",
          "name": "str",
          "type": "string"
        }
      ],
      "name": "StringTooLong",
      "type": "error"
    },
    {
      "anonymous": false,
      "inputs": [],
      "name": "EIP712DomainChanged",
      "type": "event"
    },
    {
      "anonymous": false,
      "inputs": [
        {
          "indexed": false,
          "internalType": "uint256",
          "name": "proposalId",
          "type": "uint256"
        }
      ],
      "name": "ProposalCanceled",
      "type": "event"
    },
    {
      "anonymous": false,
      "inputs": [
        {
          "indexed": false,
          "internalType": "uint256",
          "name": "proposalId",
          "type": "uint256"
        },
        {
          "indexed": false,
          "internalType": "address",
          "name": "proposer",
          "type": "address"
        },
        {
          "indexed": false,
          "internalType": "address[]",
          "name": "targets",
          "type": "address[]"
        },
        {
          "indexed": false,
          "internalType": "uint256[]",
          "name": "values",
          "type": "uint256[]"
        },
        {
          "indexed": false,
          "internalType": "string[]",
          "name": "signatures",
          "type": "string[]"
        },
        {
          "indexed": false,
          "internalType": "bytes[]",
          "name": "calldatas",
          "type": "bytes[]"
        },
        {
          "indexed": false,
          "internalType": "uint256",
          "name": "voteStart",
          "type": "uint256"
        },
        {
          "indexed": false,
          "internalType": "uint256",
          "name": "voteEnd",
          "type": "uint256"
        },
        {
          "indexed": false,
          "internalType": "string",
          "name": "description",
          "type": "string"
        }
      ],
      "name": "ProposalCreated",
      "type": "event"
    },
    {
      "anonymous": false,
      "inputs": [
        {
          "indexed": false,
          "internalType": "uint256",
          "name": "proposalId",
          "type": "uint256"
        }
      ],
      "name": "ProposalExecuted",
      "type": "event"
    },
    {
      "anonymous": false,
      "inputs": [
        {
          "indexed": false,
          "internalType": "uint256",
          "name": "proposalId",
          "type": "uint256"
        },
        {
          "indexed": false,
          "internalType": "uint256",
          "name": "etaSeconds",
          "type": "uint256"
        }
      ],
      "name": "ProposalQueued",
      "type": "event"
    },
    {
      "anonymous": false,
      "inputs": [
        {
          "indexed": false,
          "internalType": "uint256",
          "name": "oldProposalThreshold",
          "type": "uint256"
        },
        {
          "indexed": false,
          "internalType": "uint256",
          "name": "newProposalThreshold",
          "type": "uint256"
        }
      ],
      "name": "ProposalThresholdSet",
      "type": "event"
    },
    {
      "anonymous": false,
      "inputs": [
        {
          "indexed": false,
          "internalType": "uint256",
          "name": "oldQuorumNumerator",
          "type": "uint256"
        },
        {
          "indexed": false,
          "internalType": "uint256",
          "name": "newQuorumNumerator",
          "type": "uint256"
        }
      ],
      "name": "QuorumNumeratorUpdated",
      "type": "event"
    },
    {
      "anonymous": false,
      "inputs": [
        {
          "indexed": false,
          "internalType": "address",
          "name": "oldTimelock",
          "type": "address"
        },
        {
          "indexed": false,
          "internalType": "address",
          "name": "newTimelock",
          "type": "address"
        }
      ],
      "name": "TimelockChange",
      "type": "event"
    },
    {
      "anonymous": false,
      "inputs": [
        {
          "indexed": true,
          "internalType": "address",
          "name": "voter",
          "type": "address"
        },
        {
          "indexed": false,
          "internalType": "uint256",
          "name": "proposalId",
          "type": "uint256"
        },
        {
          "indexed": false,
          "internalType": "uint8",
          "name": "support",
          "type": "uint8"
        },
        {
          "indexed": false,
          "internalType": "uint256",
          "name": "weight",
          "type": "uint256"
        },
        {
          "indexed": false,
          "internalType": "string",
          "name": "reason",
          "type": "string"
        }
      ],
      "name": "VoteCast",
      "type": "event"
    },
    {
      "anonymous": false,
      "inputs": [
        {
          "indexed": true,
          "internalType": "address",
          "name": "voter",
          "type": "address"
        },
        {
          "indexed": false,
          "internalType": "uint256",
          "name": "proposalId",
          "type": "uint256"
        },
        {
          "indexed": false,
          "internalType": "uint8",
          "name": "support",
          "type": "uint8"
        },
        {
          "indexed": false,
          "internalType": "uint256",
          "name": "weight",
          "type": "uint256"
        },
        {
          "indexed": false,
          "internalType": "string",
          "name": "reason",
          "type": "string"
        },
        {
          "indexed": false,
          "internalType": "bytes",
          "name": "params",
          "type": "bytes"
        }
      ],
      "name": "VoteCastWithParams",
      "type": "event"
    },
    {
      "anonymous": false,
      "inputs": [
        {
          "indexed": false,
          "internalType": "uint256",
          "name": "oldVotingDelay",
          "type": "uint256"
        },
        {
          "indexed": false,
          "internalType": "uint256",
          "name": "newVotingDelay",
          "type": "uint256"
        }
      ],
      "name": "VotingDelaySet",
      "type": "event"
    },
    {
      "anonymous": false,
      "inputs": [
        {
          "indexed": false,
          "internalType": "uint256",
          "name": "oldVotingPeriod",
          "type": "uint256"
        },
        {
          "indexed": false,
          "internalType": "uint256",
          "name": "newVotingPeriod",
          "type": "uint256"
        }
      ],
      "name": "VotingPeriodSet",
      "type": "event"
    },
    {
      "inputs": [],
      "name": "BALLOT_TYPEHASH",
      "outputs": [
        {
          "internalType": "bytes32",
          "name": "",
          "type": "bytes32"
        }
      ],
      "stateMutability": "view",
      "type": "function"
    },
    {
      "inputs": [],
      "name": "CLOCK_MODE",
      "outputs": [
        {
          "internalType": "string",
          "name": "",
          "type": "string"
        }
      ],
      "stateMutability": "view",
      "type": "function"
    },
    {
      "inputs": [],
      "name": "COUNTING_MODE",
      "outputs": [
        {
          "internalType": "string",
          "name": "",
          "type": "string"
        }
      ],
      "stateMutability": "pure",
      "type": "function"
    },
    {
      "inputs": [],
      "name": "EXTENDED_BALLOT_TYPEHASH",
      "outputs": [
        {
          "internalType": "bytes32",
          "name": "",
          "type": "bytes32"
        }
      ],
      "stateMutability": "view",
      "type": "function"
    },
    {
      "inputs": [
        {
          "internalType": "address[]",
          "name": "targets",
          "type": "address[]"
        },
        {
          "internalType": "uint256[]",
          "name": "values",
          "type": "uint256[]"
        },
        {
          "internalType": "bytes[]",
          "name": "calldatas",
          "type": "bytes[]"
        },
        {
          "internalType": "bytes32",
          "name": "descriptionHash",
          "type": "bytes32"
        }
      ],
      "name": "cancel",
      "outputs": [
        {
          "internalType": "uint256",
          "name": "",
          "type": "uint256"
        }
      ],
      "stateMutability": "nonpayable",
      "type": "function"
    },
    {
      "inputs": [
        {
          "internalType": "uint256",
          "name": "proposalId",
          "type": "uint256"
        },
        {
          "internalType": "uint8",
          "name": "support",
          "type": "uint8"
        }
      ],
      "name": "castVote",
      "outputs": [
        {
          "internalType": "uint256",
          "name": "",
          "type": "uint256"
        }
      ],
      "stateMutability": "nonpayable",
      "type": "function"
    },
    {
      "inputs": [
        {
          "internalType": "uint256",
          "name": "proposalId",
          "type": "uint256"
        },
        {
          "internalType": "uint8",
          "name": "support",
          "type": "uint8"
        },
        {
          "internalType": "address",
          "name": "voter",
          "type": "address"
        },
        {
          "internalType": "bytes",
          "name": "signature",
          "type": "bytes"
        }
      ],
      "name": "castVoteBySig",
      "outputs": [
        {
          "internalType": "uint256",
          "name": "",
          "type": "uint256"
        }
      ],
      "stateMutability": "nonpayable",
      "type": "function"
    },
    {
      "inputs": [
        {
          "internalType": "uint256",
          "name": "proposalId",
          "type": "uint256"
        },
        {
          "internalType": "uint8",
          "name": "support",
          "type": "uint8"
        },
        {
          "internalType": "string",
          "name": "reason",
          "type": "string"
        }
      ],
      "name": "castVoteWithReason",
      "outputs": [
        {
          "internalType": "uint256",
          "name": "",
          "type": "uint256"
        }
      ],
      "stateMutability": "nonpayable",
      "type": "function"
    },
    {
      "inputs": [
        {
          "internalType": "uint256",
          "name": "proposalId",
          "type": "uint256"
        },
        {
          "internalType": "uint8",
          "name": "support",
          "type": "uint8"
        },
        {
          "internalType": "string",
          "name": "reason",
          "type": "string"
        },
        {
          "internalType": "bytes",
          "name": "params",
          "type": "bytes"
        }
      ],
      "name": "castVoteWithReasonAndParams",
      "outputs": [
        {
          "internalType": "uint256",
          "name": "",
          "type": "uint256"
        }
      ],
      "stateMutability": "nonpayable",
      "type": "function"
    },
    {
      "inputs": [
        {
          "internalType": "uint256",
          "name": "proposalId",
          "type": "uint256"
        },
        {
          "internalType": "uint8",
          "name": "support",
          "type": "uint8"
        },
        {
          "internalType": "address",
          "name": "voter",
          "type": "address"
        },
        {
          "internalType": "string",
          "name": "reason",
          "type": "string"
        },
        {
          "internalType": "bytes",
          "name": "params",
          "type": "bytes"
        },
        {
          "internalType": "bytes",
          "name": "signature",
          "type": "bytes"
        }
      ],
      "name": "castVoteWithReasonAndParamsBySig",
      "outputs": [
        {
          "internalType": "uint256",
          "name": "",
          "type": "uint256"
        }
      ],
      "stateMutability": "nonpayable",
      "type": "function"
    },
    {
      "inputs": [],
      "name": "clock",
      "outputs": [
        {
          "internalType": "uint48",
          "name": "",
          "type": "uint48"
        }
      ],
      "stateMutability": "view",
      "type": "function"
    },
    {
      "inputs": [],
      "name": "eip712Domain",
      "outputs": [
        {
          "internalType": "bytes1",
          "name": "fields",
          "type": "bytes1"
        },
        {
          "internalType": "string",
          "name": "name",
          "type": "string"
        },
        {
          "internalType": "string",
          "name": "version",
          "type": "string"
        },
        {
          "internalType": "uint256",
          "name": "chainId",
          "type": "uint256"
        },
        {
          "internalType": "address",
          "name": "verifyingContract",
          "type": "address"
        },
        {
          "internalType": "bytes32",
          "name": "salt",
          "type": "bytes32"
        },
        {
          "internalType": "uint256[]",
          "name": "extensions",
          "type": "uint256[]"
        }
      ],
      "stateMutability": "view",
      "type": "function"
    },
    {
      "inputs": [
        {
          "internalType": "address[]",
          "name": "targets",
          "type": "address[]"
        },
        {
          "internalType": "uint256[]",
          "name": "values",
          "type": "uint256[]"
        },
        {
          "internalType": "bytes[]",
          "name": "calldatas",
          "type": "bytes[]"
        },
        {
          "internalType": "bytes32",
          "name": "descriptionHash",
          "type": "bytes32"
        }
      ],
      "name": "execute",
      "outputs": [
        {
          "internalType": "uint256",
          "name": "",
          "type": "uint256"
        }
      ],
      "stateMutability": "payable",
      "type": "function"
    },
    {
      "inputs": [
        {
          "internalType": "address",
          "name": "account",
          "type": "address"
        },
        {
          "internalType": "uint256",
          "name": "timepoint",
          "type": "uint256"
        }
      ],
      "name": "getVotes",
      "outputs": [
        {
          "internalType": "uint256",
          "name": "",
          "type": "uint256"
        }
      ],
      "stateMutability": "view",
      "type": "function"
    },
    {
      "inputs": [
        {
          "internalType": "address",
          "name": "account",
          "type": "address"
        },
        {
          "internalType": "uint256",
          "name": "timepoint",
          "type": "uint256"
        },
        {
          "internalType": "bytes",
          "name": "params",
          "type": "bytes"
        }
      ],
      "name": "getVotesWithParams",
      "outputs": [
        {
          "internalType": "uint256",
          "name": "",
          "type": "uint256"
        }
      ],
      "stateMutability": "view",
      "type": "function"
    },
    {
      "inputs": [
        {
          "internalType": "uint256",
          "name": "proposalId",
          "type": "uint256"
        },
        {
          "internalType": "address",
          "name": "account",
          "type": "address"
        }
      ],
      "name": "hasVoted",
      "outputs": [
        {
          "internalType": "bool",
          "name": "",
          "type": "bool"
        }
      ],
      "stateMutability": "view",
      "type": "function"
    },
    {
      "inputs": [
        {
          "internalType": "address[]",
          "name": "targets",
          "type": "address[]"
        },
        {
          "internalType": "uint256[]",
          "name": "values",
          "type": "uint256[]"
        },
        {
          "internalType": "bytes[]",
          "name": "calldatas",
          "type": "bytes[]"
        },
        {
          "internalType": "bytes32",
          "name": "descriptionHash",
          "type": "bytes32"
        }
      ],
      "name": "hashProposal",
      "outputs": [
        {
          "internalType": "uint256",
          "name": "",
          "type": "uint256"
        }
      ],
      "stateMutability": "pure",
      "type": "function"
    },
    {
      "inputs": [],
      "name": "name",
      "outputs": [
        {
          "internalType": "string",
          "name": "",
          "type": "string"
        }
      ],
      "stateMutability": "view",
      "type": "function"
    },
    {
      "inputs": [
        {
          "internalType": "address",
          "name": "owner",
          "type": "address"
        }
      ],
      "name": "nonces",
      "outputs": [
        {
          "internalType": "uint256",
          "name": "",
          "type": "uint256"
        }
      ],
      "stateMutability": "view",
      "type": "function"
    },
    {
      "inputs": [
        {
          "internalType": "address",
          "name": "",
          "type": "address"
        },
        {
          "internalType": "address",
          "name": "",
          "type": "address"
        },
        {
          "internalType": "uint256[]",
          "name": "",
          "type": "uint256[]"
        },
        {
          "internalType": "uint256[]",
          "name": "",
          "type": "uint256[]"
        },
        {
          "internalType": "bytes",
          "name": "",
          "type": "bytes"
        }
      ],
      "name": "onERC1155BatchReceived",
      "outputs": [
        {
          "internalType": "bytes4",
          "name": "",
          "type": "bytes4"
        }
      ],
      "stateMutability": "nonpayable",
      "type": "function"
    },
    {
      "inputs": [
        {
          "internalType": "address",
          "name": "",
          "type": "address"
        },
        {
          "internalType": "address",
          "name": "",
          "type": "address"
        },
        {
          "internalType": "uint256",
          "name": "",
          "type": "uint256"
        },
        {
          "internalType": "uint256",
          "name": "",
          "type": "uint256"
        },
        {
          "internalType": "bytes",
          "name": "",
          "type": "bytes"
        }
      ],
      "name": "onERC1155Received",
      "outputs": [
        {
          "internalType": "bytes4",
          "name": "",
          "type": "bytes4"
        }
      ],
      "stateMutability": "nonpayable",
      "type": "function"
    },
    {
      "inputs": [
        {
          "internalType": "address",
          "name": "",
          "type": "address"
        },
        {
          "internalType": "address",
          "name": "",
          "type": "address"
        },
        {
          "internalType": "uint256",
          "name": "",
          "type": "uint256"
        },
        {
          "internalType": "bytes",
          "name": "",
          "type": "bytes"
        }
      ],
      "name": "onERC721Received",
      "outputs": [
        {
          "internalType": "bytes4",
          "name": "",
          "type": "bytes4"
        }
      ],
      "stateMutability": "nonpayable",
      "type": "function"
    },
    {
      "inputs": [
        {
          "internalType": "uint256",
          "name": "proposalId",
          "type": "uint256"
        }
      ],
      "name": "proposalDeadline",
      "outputs": [
        {
          "internalType": "uint256",
          "name": "",
          "type": "uint256"
        }
      ],
      "stateMutability": "view",
      "type": "function"
    },
    {
      "inputs": [
        {
          "internalType": "uint256",
          "name": "proposalId",
          "type": "uint256"
        }
      ],
      "name": "proposalEta",
      "outputs": [
        {
          "internalType": "uint256",
          "name": "",
          "type": "uint256"
        }
      ],
      "stateMutability": "view",
      "type": "function"
    },
    {
      "inputs": [
        {
          "internalType": "uint256",
          "name": "proposalId",
          "type": "uint256"
        }
      ],
      "name": "proposalNeedsQueuing",
      "outputs": [
        {
          "internalType": "bool",
          "name": "",
          "type": "bool"
        }
      ],
      "stateMutability": "view",
      "type": "function"
    },
    {
      "inputs": [
        {
          "internalType": "uint256",
          "name": "proposalId",
          "type": "uint256"
        }
      ],
      "name": "proposalProposer",
      "outputs": [
        {
          "internalType": "address",
          "name": "",
          "type": "address"
        }
      ],
      "stateMutability": "view",
      "type": "function"
    },
    {
      "inputs": [
        {
          "internalType": "uint256",
          "name": "proposalId",
          "type": "uint256"
        }
      ],
      "name": "proposalSnapshot",
      "outputs": [
        {
          "internalType": "uint256",
          "name": "",
          "type": "uint256"
        }
      ],
      "stateMutability": "view",
      "type": "function"
    },
    {
      "inputs": [],
      "name": "proposalThreshold",
      "outputs": [
        {
          "internalType": "uint256",
          "name": "",
          "type": "uint256"
        }
      ],
      "stateMutability": "view",
      "type": "function"
    },
    {
      "inputs": [
        {
          "internalType": "uint256",
          "name": "proposalId",
          "type": "uint256"
        }
      ],
      "name": "proposalVotes",
      "outputs": [
        {
          "internalType": "uint256",
          "name": "againstVotes",
          "type": "uint256"
        },
        {
          "internalType": "uint256",
          "name": "forVotes",
          "type": "uint256"
        },
        {
          "internalType": "uint256",
          "name": "abstainVotes",
          "type": "uint256"
        }
      ],
      "stateMutability": "view",
      "type": "function"
    },
    {
      "inputs": [
        {
          "internalType": "address[]",
          "name": "targets",
          "type": "address[]"
        },
        {
          "internalType": "uint256[]",
          "name": "values",
          "type": "uint256[]"
        },
        {
          "internalType": "bytes[]",
          "name": "calldatas",
          "type": "bytes[]"
        },
        {
          "internalType": "string",
          "name": "description",
          "type": "string"
        }
      ],
      "name": "propose",
      "outputs": [
        {
          "internalType": "uint256",
          "name": "",
          "type": "uint256"
        }
      ],
      "stateMutability": "nonpayable",
      "type": "function"
    },
    {
      "inputs": [
        {
          "internalType": "address[]",
          "name": "targets",
          "type": "address[]"
        },
        {
          "internalType": "uint256[]",
          "name": "values",
          "type": "uint256[]"
        },
        {
          "internalType": "bytes[]",
          "name": "calldatas",
          "type": "bytes[]"
        },
        {
          "internalType": "bytes32",
          "name": "descriptionHash",
          "type": "bytes32"
        }
      ],
      "name": "queue",
      "outputs": [
        {
          "internalType": "uint256",
          "name": "",
          "type": "uint256"
        }
      ],
      "stateMutability": "nonpayable",
      "type": "function"
    },
    {
      "inputs": [
        {
          "internalType": "uint256",
          "name": "blockNumber",
          "type": "uint256"
        }
      ],
      "name": "quorum",
      "outputs": [
        {
          "internalType": "uint256",
          "name": "",
          "type": "uint256"
        }
      ],
      "stateMutability": "view",
      "type": "function"
    },
    {
      "inputs": [],
      "name": "quorumDenominator",
      "outputs": [
        {
          "internalType": "uint256",
          "name": "",
          "type": "uint256"
        }
      ],
      "stateMutability": "view",
      "type": "function"
    },
    {
      "inputs": [
        {
          "internalType": "uint256",
          "name": "timepoint",
          "type": "uint256"
        }
      ],
      "name": "quorumNumerator",
      "outputs": [
        {
          "internalType": "uint256",
          "name": "",
          "type": "uint256"
        }
      ],
      "stateMutability": "view",
      "type": "function"
    },
    {
      "inputs": [],
      "name": "quorumNumerator",
      "outputs": [
        {
          "internalType": "uint256",
          "name": "",
          "type": "uint256"
        }
      ],
      "stateMutability": "view",
      "type": "function"
    },
    {
      "inputs": [
        {
          "internalType": "address",
          "name": "target",
          "type": "address"
        },
        {
          "internalType": "uint256",
          "name": "value",
          "type": "uint256"
        },
        {
          "internalType": "bytes",
          "name": "data",
          "type": "bytes"
        }
      ],
      "name": "relay",
      "outputs": [],
      "stateMutability": "payable",
      "type": "function"
    },
    {
      "inputs": [
        {
          "internalType": "uint256",
          "name": "newProposalThreshold",
          "type": "uint256"
        }
      ],
      "name": "setProposalThreshold",
      "outputs": [],
      "stateMutability": "nonpayable",
      "type": "function"
    },
    {
      "inputs": [
        {
          "internalType": "uint48",
          "name": "newVotingDelay",
          "type": "uint48"
        }
      ],
      "name": "setVotingDelay",
      "outputs": [],
      "stateMutability": "nonpayable",
      "type": "function"
    },
    {
      "inputs": [
        {
          "internalType": "uint32",
          "name": "newVotingPeriod",
          "type": "uint32"
        }
      ],
      "name": "setVotingPeriod",
      "outputs": [],
      "stateMutability": "nonpayable",
      "type": "function"
    },
    {
      "inputs": [
        {
          "internalType": "uint256",
          "name": "proposalId",
          "type": "uint256"
        }
      ],
      "name": "state",
      "outputs": [
        {
          "internalType": "enum IGovernor.ProposalState",
          "name": "",
          "type": "uint8"
        }
      ],
      "stateMutability": "view",
      "type": "function"
    },
    {
      "inputs": [
        {
          "internalType": "bytes4",
          "name": "interfaceId",
          "type": "bytes4"
        }
      ],
      "name": "supportsInterface",
      "outputs": [
        {
          "internalType": "bool",
          "name": "",
          "type": "bool"
        }
      ],
      "stateMutability": "view",
      "type": "function"
    },
    {
      "inputs": [],
      "name": "timelock",
      "outputs": [
        {
          "internalType": "address",
          "name": "",
          "type": "address"
        }
      ],
      "stateMutability": "view",
      "type": "function"
    },
    {
      "inputs": [],
      "name": "token",
      "outputs": [
        {
          "internalType": "contract IERC5805",
          "name": "",
          "type": "address"
        }
      ],
      "stateMutability": "view",
      "type": "function"
    },
    {
      "inputs": [
        {
          "internalType": "uint256",
          "name": "newQuorumNumerator",
          "type": "uint256"
        }
      ],
      "name": "updateQuorumNumerator",
      "outputs": [],
      "stateMutability": "nonpayable",
      "type": "function"
    },
    {
      "inputs": [
        {
          "internalType": "contract TimelockController",
          "name": "newTimelock",
          "type": "address"
        }
      ],
      "name": "updateTimelock",
      "outputs": [],
      "stateMutability": "nonpayable",
      "type": "function"
    },
    {
      "inputs": [],
      "name": "version",
      "outputs": [
        {
          "internalType": "string",
          "name": "",
          "type": "string"
        }
      ],
      "stateMutability": "view",
      "type": "function"
    },
    {
      "inputs": [],
      "name": "votingDelay",
      "outputs": [
        {
          "internalType": "uint256",
          "name": "",
          "type": "uint256"
        }
      ],
      "stateMutability": "view",
      "type": "function"
    },
    {
      "inputs": [],
      "name": "votingPeriod",
      "outputs": [
        {
          "internalType": "uint256",
          "name": "",
          "type": "uint256"
        }
      ],
      "stateMutability": "view",
      "type": "function"
    },
    {
      "stateMutability": "payable",
      "type": "receive"
    }
  ],
  "transactionHash": "0x2a9153af47b99027f921ab71e5674c8349e4c23a10d177cacfac634750590c09",
  "args": [
    "0x5FbDB2315678afecb367f032d93F642f64180aa3",
    "0x9fE46736679d2D9a65F0992F2272dE9f3c7fa6e0",
    1,
    5,
    4
  ],
  "numDeployments": 1,
  "solcInputHash": "6971abffcc81fd71955af02b5b751b0b",
  "bytecode": "0x61018060405234801561001157600080fd5b506040516185db3803806185db83398181016040528101906100339190610d79565b838186858560006040518060400160405280601081526020017f476f7665726e6f72436f6e7472616374000000000000000000000000000000008152508061007f6101ca60201b60201c565b61009360008361020760201b90919060201c565b61012081815250506100af60018261020760201b90919060201c565b6101408181525050818051906020012060e08181525050808051906020012061010081815250504660a081815250506100ec61025760201b60201c565b608081815250503073ffffffffffffffffffffffffffffffffffffffff1660c08173ffffffffffffffffffffffffffffffffffffffff168152505050508060039081610138919061103a565b5050610149836102b260201b60201c565b6101588261032760201b60201c565b610167816103e260201b60201c565b5050508073ffffffffffffffffffffffffffffffffffffffff166101608173ffffffffffffffffffffffffffffffffffffffff1681525050506101af8161042760201b60201c565b506101bf8161050360201b60201c565b505050505050611595565b60606040518060400160405280600181526020017f3100000000000000000000000000000000000000000000000000000000000000815250905090565b600060208351101561022957610222836105a260201b60201c565b9050610251565b826102398361060a60201b60201c565b6000019081610248919061103a565b5060ff60001b90505b92915050565b60007f8b73c3c69bb8fe3d512ecc4cf759cc79239f7b179b0ffacaa9a75d522b39400f60e051610100514630604051602001610297959493929190611143565b60405160208183030381529060405280519060200120905090565b7fc565b045403dc03c2eea82b81a0465edad9e2e7fc4d97e11421c209da93d7a93600860009054906101000a900465ffffffffffff16826040516102f79291906111c7565b60405180910390a180600860006101000a81548165ffffffffffff021916908365ffffffffffff16021790555050565b60008163ffffffff16036103735760006040517ff1cfbf0500000000000000000000000000000000000000000000000000000000815260040161036a919061122b565b60405180910390fd5b7f7e3f7f0708a84de9203036abaa450dccc85ad5ff52f78c170f3edb55cf5e8828600860069054906101000a900463ffffffff16826040516103b6929190611277565b60405180910390a180600860066101000a81548163ffffffff021916908363ffffffff16021790555050565b7fccb45da8d5717e6c4544694297c4ba5cf151d455c9bb0ed4fc7a38411bc05461600754826040516104159291906112a0565b60405180910390a18060078190555050565b600061043761061460201b60201c565b9050808211156104805781816040517f243e54450000000000000000000000000000000000000000000000000000000081526004016104779291906112a0565b60405180910390fd5b600061049061061d60201b60201c565b90506104c36104a361065060201b60201c565b6104b2856106e860201b60201c565b600a61075660201b9092919060201c565b50507f0553476bf02ef2726e8ce5ced78d63e26e602e4a2257b1f559418e24b463399781846040516104f69291906112a0565b60405180910390a1505050565b7f08f74ea46ef7894f65eabfb5e6e695de773a000b47c529ab559178069b226401600b60009054906101000a900473ffffffffffffffffffffffffffffffffffffffff16826040516105569291906112c9565b60405180910390a180600b60006101000a81548173ffffffffffffffffffffffffffffffffffffffff021916908373ffffffffffffffffffffffffffffffffffffffff16021790555050565b600080829050601f815111156105ef57826040517f305a27a90000000000000000000000000000000000000000000000000000000081526004016105e69190611377565b60405180910390fd5b8051816105fb906113c9565b60001c1760001b915050919050565b6000819050919050565b60006064905090565b600061062f600a61077960201b60201c565b79ffffffffffffffffffffffffffffffffffffffffffffffffffff16905090565b60006106606107e760201b60201c565b73ffffffffffffffffffffffffffffffffffffffff166391ddadf46040518163ffffffff1660e01b8152600401602060405180830381865afa9250505080156106c757506040513d601f19601f820116820180604052508101906106c49190611430565b60015b6106e0576106d96107f260201b60201c565b90506106e5565b809150505b90565b600079ffffffffffffffffffffffffffffffffffffffffffffffffffff801682111561074e5760d0826040517f6dfcc6500000000000000000000000000000000000000000000000000000000081526004016107459291906114a5565b60405180910390fd5b819050919050565b60008061076d85600001858561080860201b60201c565b91509150935093915050565b60008082600001805490509050600081146107dc576107ad836000016001836107a291906114fd565b610b9560201b60201c565b60000160069054906101000a900479ffffffffffffffffffffffffffffffffffffffffffffffffffff166107df565b60005b915050919050565b600061016051905090565b600061080343610baa60201b60201c565b905090565b6000806000858054905090506000811115610aa557600061083b8760018461083091906114fd565b610b9560201b60201c565b6040518060400160405290816000820160009054906101000a900465ffffffffffff1665ffffffffffff1665ffffffffffff1681526020016000820160069054906101000a900479ffffffffffffffffffffffffffffffffffffffffffffffffffff1679ffffffffffffffffffffffffffffffffffffffffffffffffffff1679ffffffffffffffffffffffffffffffffffffffffffffffffffff168152505090508565ffffffffffff16816000015165ffffffffffff16111561092a576040517f2520601d00000000000000000000000000000000000000000000000000000000815260040160405180910390fd5b8565ffffffffffff16816000015165ffffffffffff16036109b457846109628860018561095791906114fd565b610b9560201b60201c565b60000160066101000a81548179ffffffffffffffffffffffffffffffffffffffffffffffffffff021916908379ffffffffffffffffffffffffffffffffffffffffffffffffffff160217905550610a94565b8660405180604001604052808865ffffffffffff1681526020018779ffffffffffffffffffffffffffffffffffffffffffffffffffff168152509080600181540180825580915050600190039060005260206000200160009091909190915060008201518160000160006101000a81548165ffffffffffff021916908365ffffffffffff16021790555060208201518160000160066101000a81548179ffffffffffffffffffffffffffffffffffffffffffffffffffff021916908379ffffffffffffffffffffffffffffffffffffffffffffffffffff16021790555050505b806020015185935093505050610b8d565b8560405180604001604052808765ffffffffffff1681526020018679ffffffffffffffffffffffffffffffffffffffffffffffffffff168152509080600181540180825580915050600190039060005260206000200160009091909190915060008201518160000160006101000a81548165ffffffffffff021916908365ffffffffffff16021790555060208201518160000160066101000a81548179ffffffffffffffffffffffffffffffffffffffffffffffffffff021916908379ffffffffffffffffffffffffffffffffffffffffffffffffffff160217905550505060008492509250505b935093915050565b60008260005281602060002001905092915050565b600065ffffffffffff8016821115610bfc576030826040517f6dfcc650000000000000000000000000000000000000000000000000000000008152600401610bf392919061156c565b60405180910390fd5b819050919050565b600080fd5b600073ffffffffffffffffffffffffffffffffffffffff82169050919050565b6000610c3482610c09565b9050919050565b6000610c4682610c29565b9050919050565b610c5681610c3b565b8114610c6157600080fd5b50565b600081519050610c7381610c4d565b92915050565b6000610c8482610c09565b9050919050565b6000610c9682610c79565b9050919050565b610ca681610c8b565b8114610cb157600080fd5b50565b600081519050610cc381610c9d565b92915050565b600065ffffffffffff82169050919050565b610ce481610cc9565b8114610cef57600080fd5b50565b600081519050610d0181610cdb565b92915050565b600063ffffffff82169050919050565b610d2081610d07565b8114610d2b57600080fd5b50565b600081519050610d3d81610d17565b92915050565b6000819050919050565b610d5681610d43565b8114610d6157600080fd5b50565b600081519050610d7381610d4d565b92915050565b600080600080600060a08688031215610d9557610d94610c04565b5b6000610da388828901610c64565b9550506020610db488828901610cb4565b9450506040610dc588828901610cf2565b9350506060610dd688828901610d2e565b9250506080610de788828901610d64565b9150509295509295909350565b600081519050919050565b7f4e487b7100000000000000000000000000000000000000000000000000000000600052604160045260246000fd5b7f4e487b7100000000000000000000000000000000000000000000000000000000600052602260045260246000fd5b60006002820490506001821680610e7557607f821691505b602082108103610e8857610e87610e2e565b5b50919050565b60008190508160005260206000209050919050565b60006020601f8301049050919050565b600082821b905092915050565b600060088302610ef07fffffffffffffffffffffffffffffffffffffffffffffffffffffffffffffffff82610eb3565b610efa8683610eb3565b95508019841693508086168417925050509392505050565b6000819050919050565b6000610f37610f32610f2d84610d43565b610f12565b610d43565b9050919050565b6000819050919050565b610f5183610f1c565b610f65610f5d82610f3e565b848454610ec0565b825550505050565b600090565b610f7a610f6d565b610f85818484610f48565b505050565b5b81811015610fa957610f9e600082610f72565b600181019050610f8b565b5050565b601f821115610fee57610fbf81610e8e565b610fc884610ea3565b81016020851015610fd7578190505b610feb610fe385610ea3565b830182610f8a565b50505b505050565b600082821c905092915050565b600061101160001984600802610ff3565b1980831691505092915050565b600061102a8383611000565b9150826002028217905092915050565b61104382610df4565b67ffffffffffffffff81111561105c5761105b610dff565b5b6110668254610e5d565b611071828285610fad565b600060209050601f8311600181146110a45760008415611092578287015190505b61109c858261101e565b865550611104565b601f1984166110b286610e8e565b60005b828110156110da578489015182556001820191506020850194506020810190506110b5565b868310156110f757848901516110f3601f891682611000565b8355505b6001600288020188555050505b505050505050565b6000819050919050565b61111f8161110c565b82525050565b61112e81610d43565b82525050565b61113d81610c29565b82525050565b600060a0820190506111586000830188611116565b6111656020830187611116565b6111726040830186611116565b61117f6060830185611125565b61118c6080830184611134565b9695505050505050565b60006111b16111ac6111a784610cc9565b610f12565b610d43565b9050919050565b6111c181611196565b82525050565b60006040820190506111dc60008301856111b8565b6111e960208301846111b8565b9392505050565b6000819050919050565b600061121561121061120b846111f0565b610f12565b610d43565b9050919050565b611225816111fa565b82525050565b6000602082019050611240600083018461121c565b92915050565b600061126161125c61125784610d07565b610f12565b610d43565b9050919050565b61127181611246565b82525050565b600060408201905061128c6000830185611268565b6112996020830184611268565b9392505050565b60006040820190506112b56000830185611125565b6112c26020830184611125565b9392505050565b60006040820190506112de6000830185611134565b6112eb6020830184611134565b9392505050565b600082825260208201905092915050565b60005b83811015611321578082015181840152602081019050611306565b60008484015250505050565b6000601f19601f8301169050919050565b600061134982610df4565b61135381856112f2565b9350611363818560208601611303565b61136c8161132d565b840191505092915050565b60006020820190508181036000830152611391818461133e565b905092915050565b600081519050919050565b6000819050602082019050919050565b60006113c0825161110c565b80915050919050565b60006113d482611399565b826113de846113a4565b90506113e9816113b4565b92506020821015611429576114247fffffffffffffffffffffffffffffffffffffffffffffffffffffffffffffffff83602003600802610eb3565b831692505b5050919050565b60006020828403121561144657611445610c04565b5b600061145484828501610cf2565b91505092915050565b6000819050919050565b600060ff82169050919050565b600061148f61148a6114858461145d565b610f12565b611467565b9050919050565b61149f81611474565b82525050565b60006040820190506114ba6000830185611496565b6114c76020830184611125565b9392505050565b7f4e487b7100000000000000000000000000000000000000000000000000000000600052601160045260246000fd5b600061150882610d43565b915061151383610d43565b925082820390508181111561152b5761152a6114ce565b5b92915050565b6000819050919050565b600061155661155161154c84611531565b610f12565b611467565b9050919050565b6115668161153b565b82525050565b6000604082019050611581600083018561155d565b61158e6020830184611125565b9392505050565b60805160a05160c05160e05161010051610120516101405161016051616fe16115fa6000396000611f7501526000612eeb01526000612eb0015260006146f8015260006146d7015260006139db01526000613a3101526000613a5a0152616fe16000f3fe6080604052600436106102975760003560e01c80637ecebe001161015a578063c01f9e37116100c1578063e540d01d1161007a578063e540d01d14610bb3578063eb9019d414610bdc578063ece40cc114610c19578063f23a6e6114610c42578063f8ce560a14610c7f578063fc0c546a14610cbc5761030a565b8063c01f9e3714610a9c578063c28bc2fa14610ad9578063c59057e414610af5578063d33219b414610b32578063dd4e2ba514610b5d578063deaaa7cc14610b885761030a565b8063a7713a7011610113578063a7713a7014610966578063a890c91014610991578063a9a95294146109ba578063ab58fb8e146109f7578063b58131b014610a34578063bc197c8114610a5f5761030a565b80637ecebe001461082857806384b0196e146108655780638ff262e31461089657806391ddadf4146108d357806397c3d334146108fe5780639a802a6d146109295761030a565b806343859632116101fe5780635b8d0e0d116101b75780635b8d0e0d146106ce5780635f398a141461070b57806360c4247f1461074857806379051887146107855780637b3c71d3146107ae5780637d5e81e2146107eb5761030a565b80634385963214610582578063452115d6146105bf5780634bf5d7e9146105fc578063544ffc9c1461062757806354fd4d501461066657806356781388146106915761030a565b8063160cbed711610250578063160cbed7146104455780632656227d146104825780632d63f693146104b25780632fe3e261146104ef5780633932abb11461051a5780633e4f49e6146105455761030a565b806301ffc9a71461030f57806302a251a31461034c57806306f3f9e61461037757806306fdde03146103a0578063143489d0146103cb578063150b7a02146104085761030a565b3661030a573073ffffffffffffffffffffffffffffffffffffffff166102bb610ce7565b73ffffffffffffffffffffffffffffffffffffffff1614610308576040517fe90a651e00000000000000000000000000000000000000000000000000000000815260040160405180910390fd5b005b600080fd5b34801561031b57600080fd5b5061033660048036038101906103319190614a8c565b610cf6565b6040516103439190614ad4565b60405180910390f35b34801561035857600080fd5b50610361610dd8565b60405161036e9190614b08565b60405180910390f35b34801561038357600080fd5b5061039e60048036038101906103999190614b4f565b610de7565b005b3480156103ac57600080fd5b506103b5610dfb565b6040516103c29190614c0c565b60405180910390f35b3480156103d757600080fd5b506103f260048036038101906103ed9190614b4f565b610e8d565b6040516103ff9190614c6f565b60405180910390f35b34801561041457600080fd5b5061042f600480360381019061042a9190614deb565b610ecd565b60405161043c9190614e7d565b60405180910390f35b34801561045157600080fd5b5061046c6004803603810190610467919061513a565b610f4d565b6040516104799190614b08565b60405180910390f35b61049c6004803603810190610497919061513a565b611049565b6040516104a99190614b08565b60405180910390f35b3480156104be57600080fd5b506104d960048036038101906104d49190614b4f565b611228565b6040516104e69190614b08565b60405180910390f35b3480156104fb57600080fd5b50610504611262565b6040516105119190615204565b60405180910390f35b34801561052657600080fd5b5061052f611286565b60405161053c9190614b08565b60405180910390f35b34801561055157600080fd5b5061056c60048036038101906105679190614b4f565b611295565b6040516105799190615296565b60405180910390f35b34801561058e57600080fd5b506105a960048036038101906105a491906152b1565b6112a7565b6040516105b69190614ad4565b60405180910390f35b3480156105cb57600080fd5b506105e660048036038101906105e1919061513a565b611312565b6040516105f39190614b08565b60405180910390f35b34801561060857600080fd5b506106116113d4565b60405161061e9190614c0c565b60405180910390f35b34801561063357600080fd5b5061064e60048036038101906106499190614b4f565b611493565b60405161065d939291906152f1565b60405180910390f35b34801561067257600080fd5b5061067b6114cb565b6040516106889190614c0c565b60405180910390f35b34801561069d57600080fd5b506106b860048036038101906106b39190615361565b611508565b6040516106c59190614b08565b60405180910390f35b3480156106da57600080fd5b506106f560048036038101906106f091906153fc565b611539565b6040516107029190614b08565b60405180910390f35b34801561071757600080fd5b50610732600480360381019061072d91906154e3565b61166a565b60405161073f9190614b08565b60405180910390f35b34801561075457600080fd5b5061076f600480360381019061076a9190614b4f565b6116d4565b60405161077c9190614b08565b60405180910390f35b34801561079157600080fd5b506107ac60048036038101906107a791906155c5565b6117d8565b005b3480156107ba57600080fd5b506107d560048036038101906107d091906155f2565b6117ec565b6040516107e29190614b08565b60405180910390f35b3480156107f757600080fd5b50610812600480360381019061080d9190615707565b611854565b60405161081f9190614b08565b60405180910390f35b34801561083457600080fd5b5061084f600480360381019061084a91906157de565b611944565b60405161085c9190614b08565b60405180910390f35b34801561087157600080fd5b5061087a61198d565b60405161088d9796959493929190615904565b60405180910390f35b3480156108a257600080fd5b506108bd60048036038101906108b89190615988565b611a37565b6040516108ca9190614b08565b60405180910390f35b3480156108df57600080fd5b506108e8611b0d565b6040516108f59190615a1a565b60405180910390f35b34801561090a57600080fd5b50610913611b99565b6040516109209190614b08565b60405180910390f35b34801561093557600080fd5b50610950600480360381019061094b9190615a35565b611ba2565b60405161095d9190614b08565b60405180910390f35b34801561097257600080fd5b5061097b611bb8565b6040516109889190614b08565b60405180910390f35b34801561099d57600080fd5b506109b860048036038101906109b39190615af4565b611be5565b005b3480156109c657600080fd5b506109e160048036038101906109dc9190614b4f565b611bf9565b6040516109ee9190614ad4565b60405180910390f35b348015610a0357600080fd5b50610a1e6004803603810190610a199190614b4f565b611c0b565b604051610a2b9190614b08565b60405180910390f35b348015610a4057600080fd5b50610a49611c45565b604051610a569190614b08565b60405180910390f35b348015610a6b57600080fd5b50610a866004803603810190610a819190615b21565b611c54565b604051610a939190614e7d565b60405180910390f35b348015610aa857600080fd5b50610ac36004803603810190610abe9190614b4f565b611cd5565b604051610ad09190614b08565b60405180910390f35b610af36004803603810190610aee9190615c46565b611d46565b005b348015610b0157600080fd5b50610b1c6004803603810190610b17919061513a565b611dd3565b604051610b299190614b08565b60405180910390f35b348015610b3e57600080fd5b50610b47611e0f565b604051610b549190614c6f565b60405180910390f35b348015610b6957600080fd5b50610b72611e39565b604051610b7f9190614c0c565b60405180910390f35b348015610b9457600080fd5b50610b9d611e76565b604051610baa9190615204565b60405180910390f35b348015610bbf57600080fd5b50610bda6004803603810190610bd59190615cf6565b611e9a565b005b348015610be857600080fd5b50610c036004803603810190610bfe9190615d23565b611eae565b604051610c109190614b08565b60405180910390f35b348015610c2557600080fd5b50610c406004803603810190610c3b9190614b4f565b611eca565b005b348015610c4e57600080fd5b50610c696004803603810190610c649190615d63565b611ede565b604051610c769190614e7d565b60405180910390f35b348015610c8b57600080fd5b50610ca66004803603810190610ca19190614b4f565b611f5f565b604051610cb39190614b08565b60405180910390f35b348015610cc857600080fd5b50610cd1611f71565b604051610cde9190615e59565b60405180910390f35b6000610cf1611f99565b905090565b60007f65455a86000000000000000000000000000000000000000000000000000000007bffffffffffffffffffffffffffffffffffffffffffffffffffffffff1916827bffffffffffffffffffffffffffffffffffffffffffffffffffffffff19161480610dc157507f4e2312e0000000000000000000000000000000000000000000000000000000007bffffffffffffffffffffffffffffffffffffffffffffffffffffffff1916827bffffffffffffffffffffffffffffffffffffffffffffffffffffffff1916145b80610dd15750610dd082611fc3565b5b9050919050565b6000610de261202d565b905090565b610def61204d565b610df881612143565b50565b606060038054610e0a90615ea3565b80601f0160208091040260200160405190810160405280929190818152602001828054610e3690615ea3565b8015610e835780601f10610e5857610100808354040283529160200191610e83565b820191906000526020600020905b815481529060010190602001808311610e6657829003601f168201915b5050505050905090565b60006004600083815260200190815260200160002060000160009054906101000a900473ffffffffffffffffffffffffffffffffffffffff169050919050565b60003073ffffffffffffffffffffffffffffffffffffffff16610eee610ce7565b73ffffffffffffffffffffffffffffffffffffffff1614610f3b576040517fe90a651e00000000000000000000000000000000000000000000000000000000815260040160405180910390fd5b63150b7a0260e01b9050949350505050565b600080610f5c86868686611dd3565b9050610f7181610f6c6004612207565b61222d565b506000610f81828888888861229a565b905060008165ffffffffffff161461100a57806004600084815260200190815260200160002060010160006101000a81548165ffffffffffff021916908365ffffffffffff1602179055507f9a2e42fd6722813d69113e7d0079d3d940171428df7373df9c7f7617cfda28928282604051610ffd929190615f05565b60405180910390a161103c565b6040517f90884a4600000000000000000000000000000000000000000000000000000000815260040160405180910390fd5b8192505050949350505050565b60008061105886868686611dd3565b9050611078816110686005612207565b6110726004612207565b1761222d565b50600160046000838152602001908152602001600020600001601e6101000a81548160ff0219169083151502179055503073ffffffffffffffffffffffffffffffffffffffff166110c7610ce7565b73ffffffffffffffffffffffffffffffffffffffff161461117e5760005b865181101561117c573073ffffffffffffffffffffffffffffffffffffffff1687828151811061111857611117615f2e565b5b602002602001015173ffffffffffffffffffffffffffffffffffffffff16036111715761117085828151811061115157611150615f2e565b5b60200260200101518051906020012060056122b490919063ffffffff16565b5b8060010190506110e5565b505b61118b81878787876123da565b3073ffffffffffffffffffffffffffffffffffffffff166111aa610ce7565b73ffffffffffffffffffffffffffffffffffffffff16141580156111d557506111d360056123ee565b155b156111e5576111e4600561245e565b5b7f712ae1383f79ac853f8d882153778e0260ef8f03b504e2866e0593e04d2b291f816040516112149190614b08565b60405180910390a180915050949350505050565b60006004600083815260200190815260200160002060000160149054906101000a900465ffffffffffff1665ffffffffffff169050919050565b7f3e83946653575f9a39005e1545185629e92736b7528ab20ca3816f315424a81181565b60006112906124d9565b905090565b60006112a0826124fd565b9050919050565b60006009600084815260200190815260200160002060030160008373ffffffffffffffffffffffffffffffffffffffff1673ffffffffffffffffffffffffffffffffffffffff16815260200190815260200160002060009054906101000a900460ff16905092915050565b60008061132186868686611dd3565b9050611336816113316000612207565b61222d565b5061134081610e8d565b73ffffffffffffffffffffffffffffffffffffffff1661135e6126bc565b73ffffffffffffffffffffffffffffffffffffffff16146113bd576113816126bc565b6040517f233d98e30000000000000000000000000000000000000000000000000000000081526004016113b49190614c6f565b60405180910390fd5b6113c9868686866126c4565b915050949350505050565b60606113de611f71565b73ffffffffffffffffffffffffffffffffffffffff16634bf5d7e96040518163ffffffff1660e01b8152600401600060405180830381865afa92505050801561144a57506040513d6000823e3d601f19601f820116820180604052508101906114479190615fcd565b60015b61148b576040518060400160405280601d81526020017f6d6f64653d626c6f636b6e756d6265722666726f6d3d64656661756c740000008152509050611490565b809150505b90565b600080600080600960008681526020019081526020016000209050806000015481600101548260020154935093509350509193909250565b60606040518060400160405280600181526020017f3100000000000000000000000000000000000000000000000000000000000000815250905090565b6000806115136126bc565b9050611530848285604051806020016040528060008152506126dc565b91505092915050565b6000806115c7876115c17f3e83946653575f9a39005e1545185629e92736b7528ab20ca3816f315424a8118c8c8c6115708e6126fc565b8d8d604051611580929190616046565b60405180910390208c805190602001206040516020016115a6979695949392919061606e565b60405160208183030381529060405280519060200120612753565b8561276d565b90508061160b57866040517f94ab6c070000000000000000000000000000000000000000000000000000000081526004016116029190614c6f565b60405180910390fd5b61165c89888a89898080601f016020809104026020016040519081016040528093929190818152602001838380828437600081840152601f19601f82011690508083019250505050505050886127fd565b915050979650505050505050565b6000806116756126bc565b90506116c887828888888080601f016020809104026020016040519081016040528093929190818152602001838380828437600081840152601f19601f82011690508083019250505050505050876127fd565b91505095945050505050565b600080600a6000018054905090506000600a6000016001836116f6919061610c565b8154811061170757611706615f2e565b5b90600052602060002001905060008160000160009054906101000a900465ffffffffffff16905060008260000160069054906101000a900479ffffffffffffffffffffffffffffffffffffffffffffffffffff169050858265ffffffffffff1611611794578079ffffffffffffffffffffffffffffffffffffffffffffffffffff169450505050506117d3565b6117b06117a0876128fd565b600a61295790919063ffffffff16565b79ffffffffffffffffffffffffffffffffffffffffffffffffffff169450505050505b919050565b6117e061204d565b6117e981612a51565b50565b6000806117f76126bc565b905061184986828787878080601f016020809104026020016040519081016040528093929190818152602001838380828437600081840152601f19601f820116905080830192505050505050506126dc565b915050949350505050565b60008061185f6126bc565b905061186b8184612ac6565b6118ac57806040517fd9b395570000000000000000000000000000000000000000000000000000000081526004016118a39190614c6f565b60405180910390fd5b60006118d38260016118bc611b0d565b6118c69190616140565b65ffffffffffff16611eae565b905060006118df611c45565b90508082101561192a578282826040517fc242ee160000000000000000000000000000000000000000000000000000000081526004016119219392919061617a565b60405180910390fd5b6119378888888887612c12565b9350505050949350505050565b6000600260008373ffffffffffffffffffffffffffffffffffffffff1673ffffffffffffffffffffffffffffffffffffffff168152602001908152602001600020549050919050565b6000606080600080600060606119a1612ea7565b6119a9612ee2565b46306000801b600067ffffffffffffffff8111156119ca576119c9614cc0565b5b6040519080825280602002602001820160405280156119f85781602001602082028036833780820191505090505b507f0f00000000000000000000000000000000000000000000000000000000000000959493929190965096509650965096509650965090919293949596565b600080611aa384611a9d7ff2aad550cf55f045cb27e9c559f9889fdfb6e6cdaa032301d6ea397784ae51d7898989611a6e8b6126fc565b604051602001611a829594939291906161b1565b60405160208183030381529060405280519060200120612753565b8561276d565b905080611ae757836040517f94ab6c07000000000000000000000000000000000000000000000000000000008152600401611ade9190614c6f565b60405180910390fd5b611b02868587604051806020016040528060008152506126dc565b915050949350505050565b6000611b17611f71565b73ffffffffffffffffffffffffffffffffffffffff166391ddadf46040518163ffffffff1660e01b8152600401602060405180830381865afa925050508015611b7e57506040513d601f19601f82011682018060405250810190611b7b9190616219565b60015b611b9157611b8a612f1d565b9050611b96565b809150505b90565b60006064905090565b6000611baf848484612f2d565b90509392505050565b6000611bc4600a612fbb565b79ffffffffffffffffffffffffffffffffffffffffffffffffffff16905090565b611bed61204d565b611bf681613023565b50565b6000611c04826130c2565b9050919050565b60006004600083815260200190815260200160002060010160009054906101000a900465ffffffffffff1665ffffffffffff169050919050565b6000611c4f6130cd565b905090565b60003073ffffffffffffffffffffffffffffffffffffffff16611c75610ce7565b73ffffffffffffffffffffffffffffffffffffffff1614611cc2576040517fe90a651e00000000000000000000000000000000000000000000000000000000815260040160405180910390fd5b63bc197c8160e01b905095945050505050565b600060046000838152602001908152602001600020600001601a9054906101000a900463ffffffff1663ffffffff166004600084815260200190815260200160002060000160149054906101000a900465ffffffffffff16611d379190616246565b65ffffffffffff169050919050565b611d4e61204d565b6000808573ffffffffffffffffffffffffffffffffffffffff16858585604051611d79929190616046565b60006040518083038185875af1925050503d8060008114611db6576040519150601f19603f3d011682016040523d82523d6000602084013e611dbb565b606091505b5091509150611dca82826130d7565b50505050505050565b600084848484604051602001611dec9493929190616455565b6040516020818303038152906040528051906020012060001c9050949350505050565b6000600b60009054906101000a900473ffffffffffffffffffffffffffffffffffffffff16905090565b60606040518060400160405280602081526020017f737570706f72743d627261766f2671756f72756d3d666f722c6162737461696e815250905090565b7ff2aad550cf55f045cb27e9c559f9889fdfb6e6cdaa032301d6ea397784ae51d781565b611ea261204d565b611eab816130fb565b50565b6000611ec28383611ebd6131b6565b612f2d565b905092915050565b611ed261204d565b611edb816131cd565b50565b60003073ffffffffffffffffffffffffffffffffffffffff16611eff610ce7565b73ffffffffffffffffffffffffffffffffffffffff1614611f4c576040517fe90a651e00000000000000000000000000000000000000000000000000000000815260040160405180910390fd5b63f23a6e6160e01b905095945050505050565b6000611f6a82613212565b9050919050565b60007f0000000000000000000000000000000000000000000000000000000000000000905090565b6000600b60009054906101000a900473ffffffffffffffffffffffffffffffffffffffff16905090565b60007f01ffc9a7000000000000000000000000000000000000000000000000000000007bffffffffffffffffffffffffffffffffffffffffffffffffffffffff1916827bffffffffffffffffffffffffffffffffffffffffffffffffffffffff1916149050919050565b6000600860069054906101000a900463ffffffff1663ffffffff16905090565b6120556126bc565b73ffffffffffffffffffffffffffffffffffffffff16612073610ce7565b73ffffffffffffffffffffffffffffffffffffffff16146120d2576120966126bc565b6040517f47096e470000000000000000000000000000000000000000000000000000000081526004016120c99190614c6f565b60405180910390fd5b3073ffffffffffffffffffffffffffffffffffffffff166120f1610ce7565b73ffffffffffffffffffffffffffffffffffffffff16146121415760006121166132c1565b604051612124929190616046565b604051809103902090505b8061213a60056132ce565b0361212f57505b565b600061214d611b99565b9050808211156121965781816040517f243e544500000000000000000000000000000000000000000000000000000000815260040161218d9291906164af565b60405180910390fd5b60006121a0611bb8565b90506121c76121ad611b0d565b6121b68561342e565b600a61349c9092919063ffffffff16565b50507f0553476bf02ef2726e8ce5ced78d63e26e602e4a2257b1f559418e24b463399781846040516121fa9291906164af565b60405180910390a1505050565b600081600781111561221c5761221b61521f565b5b60ff166001901b60001b9050919050565b60008061223984611295565b90506000801b8361224983612207565b1603612290578381846040517f31b75e4d000000000000000000000000000000000000000000000000000000008152600401612287939291906164d8565b60405180910390fd5b8091505092915050565b60006122a986868686866134b9565b905095945050505050565b60008260000160109054906101000a90046fffffffffffffffffffffffffffffffff1690508260000160009054906101000a90046fffffffffffffffffffffffffffffffff166fffffffffffffffffffffffffffffffff16600182016fffffffffffffffffffffffffffffffff1603612359576040517f8acb5f2700000000000000000000000000000000000000000000000000000000815260040160405180910390fd5b81836001016000836fffffffffffffffffffffffffffffffff166fffffffffffffffffffffffffffffffff16815260200190815260200160002081905550600181018360000160106101000a8154816fffffffffffffffffffffffffffffffff02191690836fffffffffffffffffffffffffffffffff160217905550505050565b6123e785858585856136d1565b5050505050565b60008160000160009054906101000a90046fffffffffffffffffffffffffffffffff166fffffffffffffffffffffffffffffffff168260000160109054906101000a90046fffffffffffffffffffffffffffffffff166fffffffffffffffffffffffffffffffff16149050919050565b60008160000160006101000a8154816fffffffffffffffffffffffffffffffff02191690836fffffffffffffffffffffffffffffffff16021790555060008160000160106101000a8154816fffffffffffffffffffffffffffffffff02191690836fffffffffffffffffffffffffffffffff16021790555050565b6000600860009054906101000a900465ffffffffffff1665ffffffffffff16905090565b6000806125098361378e565b90506005600781111561251f5761251e61521f565b5b8160078111156125325761253161521f565b5b1461254057809150506126b7565b6000600c6000858152602001908152602001600020549050600b60009054906101000a900473ffffffffffffffffffffffffffffffffffffffff1673ffffffffffffffffffffffffffffffffffffffff1663584b153e826040518263ffffffff1660e01b81526004016125b39190615204565b602060405180830381865afa1580156125d0573d6000803e3d6000fd5b505050506040513d601f19601f820116820180604052508101906125f4919061653b565b15612604576005925050506126b7565b600b60009054906101000a900473ffffffffffffffffffffffffffffffffffffffff1673ffffffffffffffffffffffffffffffffffffffff16632ab0f529826040518263ffffffff1660e01b815260040161265f9190615204565b602060405180830381865afa15801561267c573d6000803e3d6000fd5b505050506040513d601f19601f820116820180604052508101906126a0919061653b565b156126b0576007925050506126b7565b6002925050505b919050565b600033905090565b60006126d2858585856138f2565b9050949350505050565b60006126f2858585856126ed6131b6565b6127fd565b9050949350505050565b6000600260008373ffffffffffffffffffffffffffffffffffffffff1673ffffffffffffffffffffffffffffffffffffffff1681526020019081526020016000206000815480929190600101919050559050919050565b60006127666127606139d7565b83613a8e565b9050919050565b600080600061277c8585613acf565b5091509150600060038111156127955761279461521f565b5b8160038111156127a8576127a761521f565b5b1480156127e057508573ffffffffffffffffffffffffffffffffffffffff168273ffffffffffffffffffffffffffffffffffffffff16145b806127f257506127f1868686613b2b565b5b925050509392505050565b60006128128661280d6001612207565b61222d565b5060006128288661282289611228565b85612f2d565b90506128378787878487613c4f565b6000835103612899578573ffffffffffffffffffffffffffffffffffffffff167fb8e138887d0aa13bab447e82de9d5c1777041ecd21ca36ba824ff1e6c07ddda48887848860405161288c9493929190616568565b60405180910390a26128f0565b8573ffffffffffffffffffffffffffffffffffffffff167fe2babfbac5889a709b63bb7f598b324e08bc5a4fb9ec647fb3cbc9ec07eb871288878488886040516128e79594939291906165fe565b60405180910390a25b8091505095945050505050565b600065ffffffffffff801682111561294f576030826040517f6dfcc65000000000000000000000000000000000000000000000000000000000815260040161294692919061669a565b60405180910390fd5b819050919050565b6000808360000180549050905060008082905060058311156129df57600061297e84613e4c565b84612989919061610c565b90506129988760000182613f45565b60000160009054906101000a900465ffffffffffff1665ffffffffffff168665ffffffffffff1610156129cd578091506129dd565b6001816129da91906166c3565b92505b505b60006129f087600001878585613f5a565b905060008114612a4257612a1387600001600183612a0e919061610c565b613f45565b60000160069054906101000a900479ffffffffffffffffffffffffffffffffffffffffffffffffffff16612a45565b60005b94505050505092915050565b7fc565b045403dc03c2eea82b81a0465edad9e2e7fc4d97e11421c209da93d7a93600860009054906101000a900465ffffffffffff1682604051612a969291906166f7565b60405180910390a180600860006101000a81548165ffffffffffff021916908365ffffffffffff16021790555050565b600080825190506034811015612ae0576001915050612c0c565b60006014820384015190507f2370726f706f7365723d3078000000000000000000000000000000000000000073ffffffffffffffffffffffffffffffffffffffff19168173ffffffffffffffffffffffffffffffffffffffff191614612b4b57600192505050612c0c565b600080602884612b5b919061610c565b90505b83811015612bd657600080612b8f888481518110612b7f57612b7e615f2e565b5b602001015160f81c60f81b613fd3565b9150915081612ba75760019650505050505050612c0c565b8060ff1660048573ffffffffffffffffffffffffffffffffffffffff16901b1793505050806001019050612b5e565b508573ffffffffffffffffffffffffffffffffffffffff168173ffffffffffffffffffffffffffffffffffffffff161493505050505b92915050565b6000612c278686868680519060200120611dd3565b905084518651141580612c3c57508351865114155b80612c48575060008651145b15612c91578551845186516040517f447b05d0000000000000000000000000000000000000000000000000000000008152600401612c88939291906152f1565b60405180910390fd5b60006004600083815260200190815260200160002060000160149054906101000a900465ffffffffffff1665ffffffffffff1614612d155780612cd382611295565b6000801b6040517f31b75e4d000000000000000000000000000000000000000000000000000000008152600401612d0c939291906164d8565b60405180910390fd5b6000612d1f611286565b612d27611b0d565b65ffffffffffff16612d3991906166c3565b90506000612d45610dd8565b90506000600460008581526020019081526020016000209050848160000160006101000a81548173ffffffffffffffffffffffffffffffffffffffff021916908373ffffffffffffffffffffffffffffffffffffffff160217905550612daa836128fd565b8160000160146101000a81548165ffffffffffff021916908365ffffffffffff160217905550612dd98261406d565b81600001601a6101000a81548163ffffffff021916908363ffffffff1602179055507f7d84a6263ae0d98d3329bd7b46bb4e8d6f98cd35a7adb45c274c8b7fd5ebd5e084868b8b8d5167ffffffffffffffff811115612e3b57612e3a614cc0565b5b604051908082528060200260200182016040528015612e6e57816020015b6060815260200190600190039081612e595790505b508c89898b612e7d91906166c3565b8e604051612e939998979695949392919061682c565b60405180910390a150505095945050505050565b6060612edd60007f00000000000000000000000000000000000000000000000000000000000000006140c590919063ffffffff16565b905090565b6060612f1860017f00000000000000000000000000000000000000000000000000000000000000006140c590919063ffffffff16565b905090565b6000612f28436128fd565b905090565b6000612f37611f71565b73ffffffffffffffffffffffffffffffffffffffff16633a46b1a885856040518363ffffffff1660e01b8152600401612f719291906168dc565b602060405180830381865afa158015612f8e573d6000803e3d6000fd5b505050506040513d601f19601f82011682018060405250810190612fb2919061691a565b90509392505050565b600080826000018054905090506000811461301857612fe983600001600183612fe4919061610c565b613f45565b60000160069054906101000a900479ffffffffffffffffffffffffffffffffffffffffffffffffffff1661301b565b60005b915050919050565b7f08f74ea46ef7894f65eabfb5e6e695de773a000b47c529ab559178069b226401600b60009054906101000a900473ffffffffffffffffffffffffffffffffffffffff1682604051613076929190616947565b60405180910390a180600b60006101000a81548173ffffffffffffffffffffffffffffffffffffffff021916908373ffffffffffffffffffffffffffffffffffffffff16021790555050565b600060019050919050565b6000600754905090565b6060826130ec576130e782614175565b6130f4565b8190506130f5565b5b92915050565b60008163ffffffff16036131475760006040517ff1cfbf0500000000000000000000000000000000000000000000000000000000815260040161313e91906169ab565b60405180910390fd5b7f7e3f7f0708a84de9203036abaa450dccc85ad5ff52f78c170f3edb55cf5e8828600860069054906101000a900463ffffffff168260405161318a9291906169f7565b60405180910390a180600860066101000a81548163ffffffff021916908363ffffffff16021790555050565b606060405180602001604052806000815250905090565b7fccb45da8d5717e6c4544694297c4ba5cf151d455c9bb0ed4fc7a38411bc05461600754826040516132009291906164af565b60405180910390a18060078190555050565b600061321c611b99565b613225836116d4565b61322d611f71565b73ffffffffffffffffffffffffffffffffffffffff16638e539e8c856040518263ffffffff1660e01b81526004016132659190614b08565b602060405180830381865afa158015613282573d6000803e3d6000fd5b505050506040513d601f19601f820116820180604052508101906132a6919061691a565b6132b09190616a20565b6132ba9190616a91565b9050919050565b3660008036915091509091565b6000808260000160009054906101000a90046fffffffffffffffffffffffffffffffff1690508260000160109054906101000a90046fffffffffffffffffffffffffffffffff166fffffffffffffffffffffffffffffffff16816fffffffffffffffffffffffffffffffff1603613371576040517f75e52f4f00000000000000000000000000000000000000000000000000000000815260040160405180910390fd5b826001016000826fffffffffffffffffffffffffffffffff166fffffffffffffffffffffffffffffffff168152602001908152602001600020549150826001016000826fffffffffffffffffffffffffffffffff166fffffffffffffffffffffffffffffffff16815260200190815260200160002060009055600181018360000160006101000a8154816fffffffffffffffffffffffffffffffff02191690836fffffffffffffffffffffffffffffffff16021790555050919050565b600079ffffffffffffffffffffffffffffffffffffffffffffffffffff80168211156134945760d0826040517f6dfcc65000000000000000000000000000000000000000000000000000000000815260040161348b929190616afd565b60405180910390fd5b819050919050565b6000806134ad8560000185856141ba565b91509150935093915050565b600080600b60009054906101000a900473ffffffffffffffffffffffffffffffffffffffff1673ffffffffffffffffffffffffffffffffffffffff1663f27a0c926040518163ffffffff1660e01b8152600401602060405180830381865afa158015613529573d6000803e3d6000fd5b505050506040513d601f19601f8201168201806040525081019061354d919061691a565b9050600061355a8461453b565b9050600b60009054906101000a900473ffffffffffffffffffffffffffffffffffffffff1673ffffffffffffffffffffffffffffffffffffffff1663b1c5f4278888886000866040518663ffffffff1660e01b81526004016135c0959493929190616b64565b602060405180830381865afa1580156135dd573d6000803e3d6000fd5b505050506040513d601f19601f820116820180604052508101906136019190616be1565b600c60008a815260200190815260200160002081905550600b60009054906101000a900473ffffffffffffffffffffffffffffffffffffffff1673ffffffffffffffffffffffffffffffffffffffff16638f2a0bb0888888600086886040518763ffffffff1660e01b815260040161367e96959493929190616c0e565b600060405180830381600087803b15801561369857600080fd5b505af11580156136ac573d6000803e3d6000fd5b505050506136c482426136bf91906166c3565b6128fd565b9250505095945050505050565b600b60009054906101000a900473ffffffffffffffffffffffffffffffffffffffff1673ffffffffffffffffffffffffffffffffffffffff1663e38335e534868686600061371e8861453b565b6040518763ffffffff1660e01b815260040161373e959493929190616b64565b6000604051808303818588803b15801561375757600080fd5b505af115801561376b573d6000803e3d6000fd5b5050505050600c6000868152602001908152602001600020600090555050505050565b600080600460008481526020019081526020016000209050600081600001601e9054906101000a900460ff169050600082600001601f9054906101000a900460ff16905081156137e457600793505050506138ed565b80156137f657600293505050506138ed565b600061380186611228565b90506000810361384857856040517f6ad0607500000000000000000000000000000000000000000000000000000000815260040161383f9190614b08565b60405180910390fd5b6000613852611b0d565b65ffffffffffff169050808210613871576000955050505050506138ed565b600061387c88611cd5565b905081811061389457600196505050505050506138ed565b61389d88614559565b15806138af57506138ad886145a0565b155b156138c357600396505050505050506138ed565b60006138ce89611c0b565b036138e257600496505050505050506138ed565b600596505050505050505b919050565b600080613901868686866145cb565b90506000600c60008381526020019081526020016000205490506000801b81146139ca57600b60009054906101000a900473ffffffffffffffffffffffffffffffffffffffff1673ffffffffffffffffffffffffffffffffffffffff1663c4d252f5826040518263ffffffff1660e01b81526004016139809190615204565b600060405180830381600087803b15801561399a57600080fd5b505af11580156139ae573d6000803e3d6000fd5b50505050600c6000838152602001908152602001600020600090555b8192505050949350505050565b60007f000000000000000000000000000000000000000000000000000000000000000073ffffffffffffffffffffffffffffffffffffffff163073ffffffffffffffffffffffffffffffffffffffff16148015613a5357507f000000000000000000000000000000000000000000000000000000000000000046145b15613a80577f00000000000000000000000000000000000000000000000000000000000000009050613a8b565b613a886146b2565b90505b90565b60006040517f190100000000000000000000000000000000000000000000000000000000000081528360028201528260228201526042812091505092915050565b60008060006041845103613b145760008060006020870151925060408701519150606087015160001a9050613b0688828585614748565b955095509550505050613b24565b60006002855160001b9250925092505b9250925092565b60008060008573ffffffffffffffffffffffffffffffffffffffff168585604051602401613b5a929190616c84565b604051602081830303815290604052631626ba7e60e01b6020820180517bffffffffffffffffffffffffffffffffffffffffffffffffffffffff8381831617835250505050604051613bac9190616ce5565b600060405180830381855afa9150503d8060008114613be7576040519150601f19603f3d011682016040523d82523d6000602084013e613bec565b606091505b5091509150818015613c0057506020815110155b8015613c445750631626ba7e60e01b7bffffffffffffffffffffffffffffffffffffffffffffffffffffffff191681806020019051810190613c429190616be1565b145b925050509392505050565b60006009600087815260200190815260200160002090508060030160008673ffffffffffffffffffffffffffffffffffffffff1673ffffffffffffffffffffffffffffffffffffffff16815260200190815260200160002060009054906101000a900460ff1615613cf757846040517f71c6af49000000000000000000000000000000000000000000000000000000008152600401613cee9190614c6f565b60405180910390fd5b60018160030160008773ffffffffffffffffffffffffffffffffffffffff1673ffffffffffffffffffffffffffffffffffffffff16815260200190815260200160002060006101000a81548160ff02191690831515021790555060006002811115613d6557613d6461521f565b5b60ff168460ff1603613d915782816000016000828254613d8591906166c3565b92505081905550613e44565b60016002811115613da557613da461521f565b5b60ff168460ff1603613dd15782816001016000828254613dc591906166c3565b92505081905550613e43565b600280811115613de457613de361521f565b5b60ff168460ff1603613e105782816002016000828254613e0491906166c3565b92505081905550613e42565b6040517f06b337c200000000000000000000000000000000000000000000000000000000815260040160405180910390fd5b5b5b505050505050565b6000808203613e5e5760009050613f40565b60006001613e6b8461483c565b901c6001901b90506001818481613e8557613e84616a62565b5b048201901c90506001818481613e9e57613e9d616a62565b5b048201901c90506001818481613eb757613eb6616a62565b5b048201901c90506001818481613ed057613ecf616a62565b5b048201901c90506001818481613ee957613ee8616a62565b5b048201901c90506001818481613f0257613f01616a62565b5b048201901c90506001818481613f1b57613f1a616a62565b5b048201901c9050613f3c81828581613f3657613f35616a62565b5b0461491d565b9150505b919050565b60008260005281602060002001905092915050565b60005b81831015613fc8576000613f718484614936565b90508465ffffffffffff16613f868783613f45565b60000160009054906101000a900465ffffffffffff1665ffffffffffff161115613fb257809250613fc2565b600181613fbf91906166c3565b93505b50613f5d565b819050949350505050565b60008060008360f81c90508060ff16602f108015613ff45750603a8160ff16105b15614009576001603082039250925050614068565b8060ff16604010801561401f575060478160ff16105b15614034576001603782039250925050614068565b8060ff16606010801561404a575060678160ff16105b1561405f576001605782039250925050614068565b60008092509250505b915091565b600063ffffffff80168211156140bd576020826040517f6dfcc6500000000000000000000000000000000000000000000000000000000081526004016140b4929190616d37565b60405180910390fd5b819050919050565b606060ff60001b83146140e2576140db8361495c565b905061416f565b8180546140ee90615ea3565b80601f016020809104026020016040519081016040528092919081815260200182805461411a90615ea3565b80156141675780601f1061413c57610100808354040283529160200191614167565b820191906000526020600020905b81548152906001019060200180831161414a57829003601f168201915b505050505090505b92915050565b6000815111156141885780518082602001fd5b6040517f1425ea4200000000000000000000000000000000000000000000000000000000815260040160405180910390fd5b600080600085805490509050600081111561444b5760006141e7876001846141e2919061610c565b613f45565b6040518060400160405290816000820160009054906101000a900465ffffffffffff1665ffffffffffff1665ffffffffffff1681526020016000820160069054906101000a900479ffffffffffffffffffffffffffffffffffffffffffffffffffff1679ffffffffffffffffffffffffffffffffffffffffffffffffffff1679ffffffffffffffffffffffffffffffffffffffffffffffffffff168152505090508565ffffffffffff16816000015165ffffffffffff1611156142d6576040517f2520601d00000000000000000000000000000000000000000000000000000000815260040160405180910390fd5b8565ffffffffffff16816000015165ffffffffffff160361435a578461430888600185614303919061610c565b613f45565b60000160066101000a81548179ffffffffffffffffffffffffffffffffffffffffffffffffffff021916908379ffffffffffffffffffffffffffffffffffffffffffffffffffff16021790555061443a565b8660405180604001604052808865ffffffffffff1681526020018779ffffffffffffffffffffffffffffffffffffffffffffffffffff168152509080600181540180825580915050600190039060005260206000200160009091909190915060008201518160000160006101000a81548165ffffffffffff021916908365ffffffffffff16021790555060208201518160000160066101000a81548179ffffffffffffffffffffffffffffffffffffffffffffffffffff021916908379ffffffffffffffffffffffffffffffffffffffffffffffffffff16021790555050505b806020015185935093505050614533565b8560405180604001604052808765ffffffffffff1681526020018679ffffffffffffffffffffffffffffffffffffffffffffffffffff168152509080600181540180825580915050600190039060005260206000200160009091909190915060008201518160000160006101000a81548165ffffffffffff021916908365ffffffffffff16021790555060208201518160000160066101000a81548179ffffffffffffffffffffffffffffffffffffffffffffffffffff021916908379ffffffffffffffffffffffffffffffffffffffffffffffffffff160217905550505060008492509250505b935093915050565b6000813060601b6bffffffffffffffffffffffff1916189050919050565b6000806009600084815260200190815260200160002090508060020154816001015461458591906166c3565b61459661459185611228565b611f5f565b1115915050919050565b6000806009600084815260200190815260200160002090508060000154816001015411915050919050565b6000806145da86868686611dd3565b905061463f816145ea6007612207565b6145f46006612207565b6145fe6002612207565b6001806007808111156146145761461361521f565b5b61461e9190616d60565b600261462a9190616ec8565b614634919061610c565b60001b18181861222d565b50600160046000838152602001908152602001600020600001601f6101000a81548160ff0219169083151502179055507f789cf55be980739dad1d0699b93b58e806b51c9d96619bfa8fe0a28abaa7b30c8160405161469e9190614b08565b60405180910390a180915050949350505050565b60007f8b73c3c69bb8fe3d512ecc4cf759cc79239f7b179b0ffacaa9a75d522b39400f7f00000000000000000000000000000000000000000000000000000000000000007f0000000000000000000000000000000000000000000000000000000000000000463060405160200161472d959493929190616f13565b60405160208183030381529060405280519060200120905090565b60008060007f7fffffffffffffffffffffffffffffff5d576e7357a4501ddfe92f46681b20a08460001c1115614788576000600385925092509250614832565b6000600188888888604051600081526020016040526040516147ad9493929190616f66565b6020604051602081039080840390855afa1580156147cf573d6000803e3d6000fd5b505050602060405103519050600073ffffffffffffffffffffffffffffffffffffffff168173ffffffffffffffffffffffffffffffffffffffff160361482357600060016000801b93509350935050614832565b8060008060001b935093509350505b9450945094915050565b600080600090506000608084901c111561485e57608083901c92506080810190505b6000604084901c111561487957604083901c92506040810190505b6000602084901c111561489457602083901c92506020810190505b6000601084901c11156148af57601083901c92506010810190505b6000600884901c11156148ca57600883901c92506008810190505b6000600484901c11156148e557600483901c92506004810190505b6000600284901c111561490057600283901c92506002810190505b6000600184901c1115614914576001810190505b80915050919050565b600081831061492c578161492e565b825b905092915050565b600060028284186149479190616a91565b82841661495491906166c3565b905092915050565b60606000614969836149d0565b90506000602067ffffffffffffffff81111561498857614987614cc0565b5b6040519080825280601f01601f1916602001820160405280156149ba5781602001600182028036833780820191505090505b5090508181528360208201528092505050919050565b60008060ff8360001c169050601f811115614a17576040517fb3512b0c00000000000000000000000000000000000000000000000000000000815260040160405180910390fd5b80915050919050565b6000604051905090565b600080fd5b600080fd5b60007fffffffff0000000000000000000000000000000000000000000000000000000082169050919050565b614a6981614a34565b8114614a7457600080fd5b50565b600081359050614a8681614a60565b92915050565b600060208284031215614aa257614aa1614a2a565b5b6000614ab084828501614a77565b91505092915050565b60008115159050919050565b614ace81614ab9565b82525050565b6000602082019050614ae96000830184614ac5565b92915050565b6000819050919050565b614b0281614aef565b82525050565b6000602082019050614b1d6000830184614af9565b92915050565b614b2c81614aef565b8114614b3757600080fd5b50565b600081359050614b4981614b23565b92915050565b600060208284031215614b6557614b64614a2a565b5b6000614b7384828501614b3a565b91505092915050565b600081519050919050565b600082825260208201905092915050565b60005b83811015614bb6578082015181840152602081019050614b9b565b60008484015250505050565b6000601f19601f8301169050919050565b6000614bde82614b7c565b614be88185614b87565b9350614bf8818560208601614b98565b614c0181614bc2565b840191505092915050565b60006020820190508181036000830152614c268184614bd3565b905092915050565b600073ffffffffffffffffffffffffffffffffffffffff82169050919050565b6000614c5982614c2e565b9050919050565b614c6981614c4e565b82525050565b6000602082019050614c846000830184614c60565b92915050565b614c9381614c4e565b8114614c9e57600080fd5b50565b600081359050614cb081614c8a565b92915050565b600080fd5b600080fd5b7f4e487b7100000000000000000000000000000000000000000000000000000000600052604160045260246000fd5b614cf882614bc2565b810181811067ffffffffffffffff82111715614d1757614d16614cc0565b5b80604052505050565b6000614d2a614a20565b9050614d368282614cef565b919050565b600067ffffffffffffffff821115614d5657614d55614cc0565b5b614d5f82614bc2565b9050602081019050919050565b82818337600083830152505050565b6000614d8e614d8984614d3b565b614d20565b905082815260208101848484011115614daa57614da9614cbb565b5b614db5848285614d6c565b509392505050565b600082601f830112614dd257614dd1614cb6565b5b8135614de2848260208601614d7b565b91505092915050565b60008060008060808587031215614e0557614e04614a2a565b5b6000614e1387828801614ca1565b9450506020614e2487828801614ca1565b9350506040614e3587828801614b3a565b925050606085013567ffffffffffffffff811115614e5657614e55614a2f565b5b614e6287828801614dbd565b91505092959194509250565b614e7781614a34565b82525050565b6000602082019050614e926000830184614e6e565b92915050565b600067ffffffffffffffff821115614eb357614eb2614cc0565b5b602082029050602081019050919050565b600080fd5b6000614edc614ed784614e98565b614d20565b90508083825260208201905060208402830185811115614eff57614efe614ec4565b5b835b81811015614f285780614f148882614ca1565b845260208401935050602081019050614f01565b5050509392505050565b600082601f830112614f4757614f46614cb6565b5b8135614f57848260208601614ec9565b91505092915050565b600067ffffffffffffffff821115614f7b57614f7a614cc0565b5b602082029050602081019050919050565b6000614f9f614f9a84614f60565b614d20565b90508083825260208201905060208402830185811115614fc257614fc1614ec4565b5b835b81811015614feb5780614fd78882614b3a565b845260208401935050602081019050614fc4565b5050509392505050565b600082601f83011261500a57615009614cb6565b5b813561501a848260208601614f8c565b91505092915050565b600067ffffffffffffffff82111561503e5761503d614cc0565b5b602082029050602081019050919050565b600061506261505d84615023565b614d20565b9050808382526020820190506020840283018581111561508557615084614ec4565b5b835b818110156150cc57803567ffffffffffffffff8111156150aa576150a9614cb6565b5b8086016150b78982614dbd565b85526020850194505050602081019050615087565b5050509392505050565b600082601f8301126150eb576150ea614cb6565b5b81356150fb84826020860161504f565b91505092915050565b6000819050919050565b61511781615104565b811461512257600080fd5b50565b6000813590506151348161510e565b92915050565b6000806000806080858703121561515457615153614a2a565b5b600085013567ffffffffffffffff81111561517257615171614a2f565b5b61517e87828801614f32565b945050602085013567ffffffffffffffff81111561519f5761519e614a2f565b5b6151ab87828801614ff5565b935050604085013567ffffffffffffffff8111156151cc576151cb614a2f565b5b6151d8878288016150d6565b92505060606151e987828801615125565b91505092959194509250565b6151fe81615104565b82525050565b600060208201905061521960008301846151f5565b92915050565b7f4e487b7100000000000000000000000000000000000000000000000000000000600052602160045260246000fd5b6008811061525f5761525e61521f565b5b50565b60008190506152708261524e565b919050565b600061528082615262565b9050919050565b61529081615275565b82525050565b60006020820190506152ab6000830184615287565b92915050565b600080604083850312156152c8576152c7614a2a565b5b60006152d685828601614b3a565b92505060206152e785828601614ca1565b9150509250929050565b60006060820190506153066000830186614af9565b6153136020830185614af9565b6153206040830184614af9565b949350505050565b600060ff82169050919050565b61533e81615328565b811461534957600080fd5b50565b60008135905061535b81615335565b92915050565b6000806040838503121561537857615377614a2a565b5b600061538685828601614b3a565b92505060206153978582860161534c565b9150509250929050565b600080fd5b60008083601f8401126153bc576153bb614cb6565b5b8235905067ffffffffffffffff8111156153d9576153d86153a1565b5b6020830191508360018202830111156153f5576153f4614ec4565b5b9250929050565b600080600080600080600060c0888a03121561541b5761541a614a2a565b5b60006154298a828b01614b3a565b975050602061543a8a828b0161534c565b965050604061544b8a828b01614ca1565b955050606088013567ffffffffffffffff81111561546c5761546b614a2f565b5b6154788a828b016153a6565b9450945050608088013567ffffffffffffffff81111561549b5761549a614a2f565b5b6154a78a828b01614dbd565b92505060a088013567ffffffffffffffff8111156154c8576154c7614a2f565b5b6154d48a828b01614dbd565b91505092959891949750929550565b6000806000806000608086880312156154ff576154fe614a2a565b5b600061550d88828901614b3a565b955050602061551e8882890161534c565b945050604086013567ffffffffffffffff81111561553f5761553e614a2f565b5b61554b888289016153a6565b9350935050606086013567ffffffffffffffff81111561556e5761556d614a2f565b5b61557a88828901614dbd565b9150509295509295909350565b600065ffffffffffff82169050919050565b6155a281615587565b81146155ad57600080fd5b50565b6000813590506155bf81615599565b92915050565b6000602082840312156155db576155da614a2a565b5b60006155e9848285016155b0565b91505092915050565b6000806000806060858703121561560c5761560b614a2a565b5b600061561a87828801614b3a565b945050602061562b8782880161534c565b935050604085013567ffffffffffffffff81111561564c5761564b614a2f565b5b615658878288016153a6565b925092505092959194509250565b600067ffffffffffffffff82111561568157615680614cc0565b5b61568a82614bc2565b9050602081019050919050565b60006156aa6156a584615666565b614d20565b9050828152602081018484840111156156c6576156c5614cbb565b5b6156d1848285614d6c565b509392505050565b600082601f8301126156ee576156ed614cb6565b5b81356156fe848260208601615697565b91505092915050565b6000806000806080858703121561572157615720614a2a565b5b600085013567ffffffffffffffff81111561573f5761573e614a2f565b5b61574b87828801614f32565b945050602085013567ffffffffffffffff81111561576c5761576b614a2f565b5b61577887828801614ff5565b935050604085013567ffffffffffffffff81111561579957615798614a2f565b5b6157a5878288016150d6565b925050606085013567ffffffffffffffff8111156157c6576157c5614a2f565b5b6157d2878288016156d9565b91505092959194509250565b6000602082840312156157f4576157f3614a2a565b5b600061580284828501614ca1565b91505092915050565b60007fff0000000000000000000000000000000000000000000000000000000000000082169050919050565b6158408161580b565b82525050565b600081519050919050565b600082825260208201905092915050565b6000819050602082019050919050565b61587b81614aef565b82525050565b600061588d8383615872565b60208301905092915050565b6000602082019050919050565b60006158b182615846565b6158bb8185615851565b93506158c683615862565b8060005b838110156158f75781516158de8882615881565b97506158e983615899565b9250506001810190506158ca565b5085935050505092915050565b600060e082019050615919600083018a615837565b818103602083015261592b8189614bd3565b9050818103604083015261593f8188614bd3565b905061594e6060830187614af9565b61595b6080830186614c60565b61596860a08301856151f5565b81810360c083015261597a81846158a6565b905098975050505050505050565b600080600080608085870312156159a2576159a1614a2a565b5b60006159b087828801614b3a565b94505060206159c18782880161534c565b93505060406159d287828801614ca1565b925050606085013567ffffffffffffffff8111156159f3576159f2614a2f565b5b6159ff87828801614dbd565b91505092959194509250565b615a1481615587565b82525050565b6000602082019050615a2f6000830184615a0b565b92915050565b600080600060608486031215615a4e57615a4d614a2a565b5b6000615a5c86828701614ca1565b9350506020615a6d86828701614b3a565b925050604084013567ffffffffffffffff811115615a8e57615a8d614a2f565b5b615a9a86828701614dbd565b9150509250925092565b6000615aaf82614c2e565b9050919050565b6000615ac182615aa4565b9050919050565b615ad181615ab6565b8114615adc57600080fd5b50565b600081359050615aee81615ac8565b92915050565b600060208284031215615b0a57615b09614a2a565b5b6000615b1884828501615adf565b91505092915050565b600080600080600060a08688031215615b3d57615b3c614a2a565b5b6000615b4b88828901614ca1565b9550506020615b5c88828901614ca1565b945050604086013567ffffffffffffffff811115615b7d57615b7c614a2f565b5b615b8988828901614ff5565b935050606086013567ffffffffffffffff811115615baa57615ba9614a2f565b5b615bb688828901614ff5565b925050608086013567ffffffffffffffff811115615bd757615bd6614a2f565b5b615be388828901614dbd565b9150509295509295909350565b60008083601f840112615c0657615c05614cb6565b5b8235905067ffffffffffffffff811115615c2357615c226153a1565b5b602083019150836001820283011115615c3f57615c3e614ec4565b5b9250929050565b60008060008060608587031215615c6057615c5f614a2a565b5b6000615c6e87828801614ca1565b9450506020615c7f87828801614b3a565b935050604085013567ffffffffffffffff811115615ca057615c9f614a2f565b5b615cac87828801615bf0565b925092505092959194509250565b600063ffffffff82169050919050565b615cd381615cba565b8114615cde57600080fd5b50565b600081359050615cf081615cca565b92915050565b600060208284031215615d0c57615d0b614a2a565b5b6000615d1a84828501615ce1565b91505092915050565b60008060408385031215615d3a57615d39614a2a565b5b6000615d4885828601614ca1565b9250506020615d5985828601614b3a565b9150509250929050565b600080600080600060a08688031215615d7f57615d7e614a2a565b5b6000615d8d88828901614ca1565b9550506020615d9e88828901614ca1565b9450506040615daf88828901614b3a565b9350506060615dc088828901614b3a565b925050608086013567ffffffffffffffff811115615de157615de0614a2f565b5b615ded88828901614dbd565b9150509295509295909350565b6000819050919050565b6000615e1f615e1a615e1584614c2e565b615dfa565b614c2e565b9050919050565b6000615e3182615e04565b9050919050565b6000615e4382615e26565b9050919050565b615e5381615e38565b82525050565b6000602082019050615e6e6000830184615e4a565b92915050565b7f4e487b7100000000000000000000000000000000000000000000000000000000600052602260045260246000fd5b60006002820490506001821680615ebb57607f821691505b602082108103615ece57615ecd615e74565b5b50919050565b6000615eef615eea615ee584615587565b615dfa565b614aef565b9050919050565b615eff81615ed4565b82525050565b6000604082019050615f1a6000830185614af9565b615f276020830184615ef6565b9392505050565b7f4e487b7100000000000000000000000000000000000000000000000000000000600052603260045260246000fd5b6000615f70615f6b84615666565b614d20565b905082815260208101848484011115615f8c57615f8b614cbb565b5b615f97848285614b98565b509392505050565b600082601f830112615fb457615fb3614cb6565b5b8151615fc4848260208601615f5d565b91505092915050565b600060208284031215615fe357615fe2614a2a565b5b600082015167ffffffffffffffff81111561600157616000614a2f565b5b61600d84828501615f9f565b91505092915050565b600081905092915050565b600061602d8385616016565b935061603a838584614d6c565b82840190509392505050565b6000616053828486616021565b91508190509392505050565b61606881615328565b82525050565b600060e082019050616083600083018a6151f5565b6160906020830189614af9565b61609d604083018861605f565b6160aa6060830187614c60565b6160b76080830186614af9565b6160c460a08301856151f5565b6160d160c08301846151f5565b98975050505050505050565b7f4e487b7100000000000000000000000000000000000000000000000000000000600052601160045260246000fd5b600061611782614aef565b915061612283614aef565b925082820390508181111561613a576161396160dd565b5b92915050565b600061614b82615587565b915061615683615587565b9250828203905065ffffffffffff811115616174576161736160dd565b5b92915050565b600060608201905061618f6000830186614c60565b61619c6020830185614af9565b6161a96040830184614af9565b949350505050565b600060a0820190506161c660008301886151f5565b6161d36020830187614af9565b6161e0604083018661605f565b6161ed6060830185614c60565b6161fa6080830184614af9565b9695505050505050565b60008151905061621381615599565b92915050565b60006020828403121561622f5761622e614a2a565b5b600061623d84828501616204565b91505092915050565b600061625182615587565b915061625c83615587565b9250828201905065ffffffffffff81111561627a576162796160dd565b5b92915050565b600081519050919050565b600082825260208201905092915050565b6000819050602082019050919050565b6162b581614c4e565b82525050565b60006162c783836162ac565b60208301905092915050565b6000602082019050919050565b60006162eb82616280565b6162f5818561628b565b93506163008361629c565b8060005b8381101561633157815161631888826162bb565b9750616323836162d3565b925050600181019050616304565b5085935050505092915050565b600081519050919050565b600082825260208201905092915050565b6000819050602082019050919050565b600081519050919050565b600082825260208201905092915050565b60006163918261636a565b61639b8185616375565b93506163ab818560208601614b98565b6163b481614bc2565b840191505092915050565b60006163cb8383616386565b905092915050565b6000602082019050919050565b60006163eb8261633e565b6163f58185616349565b9350836020820285016164078561635a565b8060005b85811015616443578484038952815161642485826163bf565b945061642f836163d3565b925060208a0199505060018101905061640b565b50829750879550505050505092915050565b6000608082019050818103600083015261646f81876162e0565b9050818103602083015261648381866158a6565b9050818103604083015261649781856163e0565b90506164a660608301846151f5565b95945050505050565b60006040820190506164c46000830185614af9565b6164d16020830184614af9565b9392505050565b60006060820190506164ed6000830186614af9565b6164fa6020830185615287565b61650760408301846151f5565b949350505050565b61651881614ab9565b811461652357600080fd5b50565b6000815190506165358161650f565b92915050565b60006020828403121561655157616550614a2a565b5b600061655f84828501616526565b91505092915050565b600060808201905061657d6000830187614af9565b61658a602083018661605f565b6165976040830185614af9565b81810360608301526165a98184614bd3565b905095945050505050565b600082825260208201905092915050565b60006165d08261636a565b6165da81856165b4565b93506165ea818560208601614b98565b6165f381614bc2565b840191505092915050565b600060a0820190506166136000830188614af9565b616620602083018761605f565b61662d6040830186614af9565b818103606083015261663f8185614bd3565b9050818103608083015261665381846165c5565b90509695505050505050565b6000819050919050565b600061668461667f61667a8461665f565b615dfa565b615328565b9050919050565b61669481616669565b82525050565b60006040820190506166af600083018561668b565b6166bc6020830184614af9565b9392505050565b60006166ce82614aef565b91506166d983614aef565b92508282019050808211156166f1576166f06160dd565b5b92915050565b600060408201905061670c6000830185615ef6565b6167196020830184615ef6565b9392505050565b600081519050919050565b600082825260208201905092915050565b6000819050602082019050919050565b600082825260208201905092915050565b600061676882614b7c565b616772818561674c565b9350616782818560208601614b98565b61678b81614bc2565b840191505092915050565b60006167a2838361675d565b905092915050565b6000602082019050919050565b60006167c282616720565b6167cc818561672b565b9350836020820285016167de8561673c565b8060005b8581101561681a57848403895281516167fb8582616796565b9450616806836167aa565b925060208a019950506001810190506167e2565b50829750879550505050505092915050565b600061012082019050616842600083018c614af9565b61684f602083018b614c60565b8181036040830152616861818a6162e0565b9050818103606083015261687581896158a6565b9050818103608083015261688981886167b7565b905081810360a083015261689d81876163e0565b90506168ac60c0830186614af9565b6168b960e0830185614af9565b8181036101008301526168cc8184614bd3565b90509a9950505050505050505050565b60006040820190506168f16000830185614c60565b6168fe6020830184614af9565b9392505050565b60008151905061691481614b23565b92915050565b6000602082840312156169305761692f614a2a565b5b600061693e84828501616905565b91505092915050565b600060408201905061695c6000830185614c60565b6169696020830184614c60565b9392505050565b6000819050919050565b600061699561699061698b84616970565b615dfa565b614aef565b9050919050565b6169a58161697a565b82525050565b60006020820190506169c0600083018461699c565b92915050565b60006169e16169dc6169d784615cba565b615dfa565b614aef565b9050919050565b6169f1816169c6565b82525050565b6000604082019050616a0c60008301856169e8565b616a1960208301846169e8565b9392505050565b6000616a2b82614aef565b9150616a3683614aef565b9250828202616a4481614aef565b91508282048414831517616a5b57616a5a6160dd565b5b5092915050565b7f4e487b7100000000000000000000000000000000000000000000000000000000600052601260045260246000fd5b6000616a9c82614aef565b9150616aa783614aef565b925082616ab757616ab6616a62565b5b828204905092915050565b6000819050919050565b6000616ae7616ae2616add84616ac2565b615dfa565b615328565b9050919050565b616af781616acc565b82525050565b6000604082019050616b126000830185616aee565b616b1f6020830184614af9565b9392505050565b60008160001b9050919050565b6000616b4e616b49616b4484616970565b616b26565b615104565b9050919050565b616b5e81616b33565b82525050565b600060a0820190508181036000830152616b7e81886162e0565b90508181036020830152616b9281876158a6565b90508181036040830152616ba681866163e0565b9050616bb56060830185616b55565b616bc260808301846151f5565b9695505050505050565b600081519050616bdb8161510e565b92915050565b600060208284031215616bf757616bf6614a2a565b5b6000616c0584828501616bcc565b91505092915050565b600060c0820190508181036000830152616c2881896162e0565b90508181036020830152616c3c81886158a6565b90508181036040830152616c5081876163e0565b9050616c5f6060830186616b55565b616c6c60808301856151f5565b616c7960a0830184614af9565b979650505050505050565b6000604082019050616c9960008301856151f5565b8181036020830152616cab81846165c5565b90509392505050565b6000616cbf8261636a565b616cc98185616016565b9350616cd9818560208601614b98565b80840191505092915050565b6000616cf18284616cb4565b915081905092915050565b6000819050919050565b6000616d21616d1c616d1784616cfc565b615dfa565b615328565b9050919050565b616d3181616d06565b82525050565b6000604082019050616d4c6000830185616d28565b616d596020830184614af9565b9392505050565b6000616d6b82615328565b9150616d7683615328565b9250828201905060ff811115616d8f57616d8e6160dd565b5b92915050565b60008160011c9050919050565b6000808291508390505b6001851115616dec57808604811115616dc857616dc76160dd565b5b6001851615616dd75780820291505b8081029050616de585616d95565b9450616dac565b94509492505050565b600082616e055760019050616ec1565b81616e135760009050616ec1565b8160018114616e295760028114616e3357616e62565b6001915050616ec1565b60ff841115616e4557616e446160dd565b5b8360020a915084821115616e5c57616e5b6160dd565b5b50616ec1565b5060208310610133831016604e8410600b8410161715616e975782820a905083811115616e9257616e916160dd565b5b616ec1565b616ea48484846001616da2565b92509050818404811115616ebb57616eba6160dd565b5b81810290505b9392505050565b6000616ed382614aef565b9150616ede83615328565b9250616f0b7fffffffffffffffffffffffffffffffffffffffffffffffffffffffffffffffff8484616df5565b905092915050565b600060a082019050616f2860008301886151f5565b616f3560208301876151f5565b616f4260408301866151f5565b616f4f6060830185614af9565b616f5c6080830184614c60565b9695505050505050565b6000608082019050616f7b60008301876151f5565b616f88602083018661605f565b616f9560408301856151f5565b616fa260608301846151f5565b9594505050505056fea264697066735822122088bc7a233d25d087e409c0928312655334a9224f8ae830404426bf4de4233c2764736f6c634300081b0033",
  "devdoc": {
    "errors": {
      "CheckpointUnorderedInsertion()": [
        {
          "details": "A value was attempted to be inserted on a past checkpoint."
        }
      ],
      "FailedInnerCall()": [
        {
          "details": "A call to an address target failed. The target may have reverted."
        }
      ],
      "GovernorAlreadyCastVote(address)": [
        {
          "details": "The vote was already cast."
        }
      ],
      "GovernorAlreadyQueuedProposal(uint256)": [
        {
          "details": "The proposal has already been queued."
        }
      ],
      "GovernorDisabledDeposit()": [
        {
          "details": "Token deposits are disabled in this contract."
        }
      ],
      "GovernorInsufficientProposerVotes(address,uint256,uint256)": [
        {
          "details": "The `proposer` does not have the required votes to create a proposal."
        }
      ],
      "GovernorInvalidProposalLength(uint256,uint256,uint256)": [
        {
          "details": "Empty proposal or a mismatch between the parameters length for a proposal call."
        }
      ],
      "GovernorInvalidQuorumFraction(uint256,uint256)": [
        {
          "details": "The quorum set is not a valid fraction."
        }
      ],
      "GovernorInvalidSignature(address)": [
        {
          "details": "The provided signature is not valid for the expected `voter`. If the `voter` is a contract, the signature is not valid using {IERC1271-isValidSignature}."
        }
      ],
      "GovernorInvalidVoteType()": [
        {
          "details": "The vote type used is not valid for the corresponding counting module."
        }
      ],
      "GovernorInvalidVotingPeriod(uint256)": [
        {
          "details": "The voting period set is not a valid period."
        }
      ],
      "GovernorNonexistentProposal(uint256)": [
        {
          "details": "The `proposalId` doesn't exist."
        }
      ],
      "GovernorNotQueuedProposal(uint256)": [
        {
          "details": "The proposal hasn't been queued yet."
        }
      ],
      "GovernorOnlyExecutor(address)": [
        {
          "details": "The `account` is not the governance executor."
        }
      ],
      "GovernorOnlyProposer(address)": [
        {
          "details": "The `account` is not a proposer."
        }
      ],
      "GovernorQueueNotImplemented()": [
        {
          "details": "Queue operation is not implemented for this governor. Execute should be called directly."
        }
      ],
      "GovernorRestrictedProposer(address)": [
        {
          "details": "The `proposer` is not allowed to create a proposal."
        }
      ],
      "GovernorUnexpectedProposalState(uint256,uint8,bytes32)": [
        {
          "details": "The current state of a proposal is not the required for performing an operation. The `expectedStates` is a bitmap with the bits enabled for each ProposalState enum position counting from right to left. NOTE: If `expectedState` is `bytes32(0)`, the proposal is expected to not be in any state (i.e. not exist). This is the case when a proposal that is expected to be unset is already initiated (the proposal is duplicated). See {Governor-_encodeStateBitmap}."
        }
      ],
      "InvalidAccountNonce(address,uint256)": [
        {
          "details": "The nonce used for an `account` is not the expected current nonce."
        }
      ],
      "QueueEmpty()": [
        {
          "details": "An operation (e.g. {front}) couldn't be completed due to the queue being empty."
        }
      ],
      "QueueFull()": [
        {
          "details": "A push operation couldn't be completed due to the queue being full."
        }
      ],
      "SafeCastOverflowedUintDowncast(uint8,uint256)": [
        {
          "details": "Value doesn't fit in an uint of `bits` size."
        }
      ]
    },
    "events": {
      "EIP712DomainChanged()": {
        "details": "MAY be emitted to signal that the domain could have changed."
      },
      "ProposalCanceled(uint256)": {
        "details": "Emitted when a proposal is canceled."
      },
      "ProposalCreated(uint256,address,address[],uint256[],string[],bytes[],uint256,uint256,string)": {
        "details": "Emitted when a proposal is created."
      },
      "ProposalExecuted(uint256)": {
        "details": "Emitted when a proposal is executed."
      },
      "ProposalQueued(uint256,uint256)": {
        "details": "Emitted when a proposal is queued."
      },
      "TimelockChange(address,address)": {
        "details": "Emitted when the timelock controller used for proposal execution is modified."
      },
      "VoteCast(address,uint256,uint8,uint256,string)": {
        "details": "Emitted when a vote is cast without params. Note: `support` values should be seen as buckets. Their interpretation depends on the voting module used."
      },
      "VoteCastWithParams(address,uint256,uint8,uint256,string,bytes)": {
        "details": "Emitted when a vote is cast with params. Note: `support` values should be seen as buckets. Their interpretation depends on the voting module used. `params` are additional encoded parameters. Their interpepretation also depends on the voting module used."
      }
    },
    "kind": "dev",
    "methods": {
      "CLOCK_MODE()": {
        "details": "Machine-readable description of the clock as specified in EIP-6372."
      },
      "COUNTING_MODE()": {
        "details": "See {IGovernor-COUNTING_MODE}."
      },
      "cancel(address[],uint256[],bytes[],bytes32)": {
        "details": "See {IGovernor-cancel}."
      },
      "castVote(uint256,uint8)": {
        "details": "See {IGovernor-castVote}."
      },
      "castVoteBySig(uint256,uint8,address,bytes)": {
        "details": "See {IGovernor-castVoteBySig}."
      },
      "castVoteWithReason(uint256,uint8,string)": {
        "details": "See {IGovernor-castVoteWithReason}."
      },
      "castVoteWithReasonAndParams(uint256,uint8,string,bytes)": {
        "details": "See {IGovernor-castVoteWithReasonAndParams}."
      },
      "castVoteWithReasonAndParamsBySig(uint256,uint8,address,string,bytes,bytes)": {
        "details": "See {IGovernor-castVoteWithReasonAndParamsBySig}."
      },
      "clock()": {
        "details": "Clock (as specified in EIP-6372) is set to match the token's clock. Fallback to block numbers if the token does not implement EIP-6372."
      },
      "eip712Domain()": {
        "details": "See {IERC-5267}."
      },
      "execute(address[],uint256[],bytes[],bytes32)": {
        "details": "See {IGovernor-execute}."
      },
      "getVotes(address,uint256)": {
        "details": "See {IGovernor-getVotes}."
      },
      "getVotesWithParams(address,uint256,bytes)": {
        "details": "See {IGovernor-getVotesWithParams}."
      },
      "hasVoted(uint256,address)": {
        "details": "See {IGovernor-hasVoted}."
      },
      "hashProposal(address[],uint256[],bytes[],bytes32)": {
        "details": "See {IGovernor-hashProposal}. The proposal id is produced by hashing the ABI encoded `targets` array, the `values` array, the `calldatas` array and the descriptionHash (bytes32 which itself is the keccak256 hash of the description string). This proposal id can be produced from the proposal data which is part of the {ProposalCreated} event. It can even be computed in advance, before the proposal is submitted. Note that the chainId and the governor address are not part of the proposal id computation. Consequently, the same proposal (with same operation and same description) will have the same id if submitted on multiple governors across multiple networks. This also means that in order to execute the same operation twice (on the same governor) the proposer will have to change the description in order to avoid proposal id conflicts."
      },
      "name()": {
        "details": "See {IGovernor-name}."
      },
      "nonces(address)": {
        "details": "Returns the next unused nonce for an address."
      },
      "onERC1155BatchReceived(address,address,uint256[],uint256[],bytes)": {
        "details": "See {IERC1155Receiver-onERC1155BatchReceived}. Receiving tokens is disabled if the governance executor is other than the governor itself (eg. when using with a timelock)."
      },
      "onERC1155Received(address,address,uint256,uint256,bytes)": {
        "details": "See {IERC1155Receiver-onERC1155Received}. Receiving tokens is disabled if the governance executor is other than the governor itself (eg. when using with a timelock)."
      },
      "onERC721Received(address,address,uint256,bytes)": {
        "details": "See {IERC721Receiver-onERC721Received}. Receiving tokens is disabled if the governance executor is other than the governor itself (eg. when using with a timelock)."
      },
      "proposalDeadline(uint256)": {
        "details": "See {IGovernor-proposalDeadline}."
      },
      "proposalEta(uint256)": {
        "details": "See {IGovernor-proposalEta}."
      },
      "proposalProposer(uint256)": {
        "details": "See {IGovernor-proposalProposer}."
      },
      "proposalSnapshot(uint256)": {
        "details": "See {IGovernor-proposalSnapshot}."
      },
      "proposalVotes(uint256)": {
        "details": "Accessor to the internal vote counts."
      },
      "propose(address[],uint256[],bytes[],string)": {
        "details": "See {IGovernor-propose}. This function has opt-in frontrunning protection, described in {_isValidDescriptionForProposer}."
      },
      "queue(address[],uint256[],bytes[],bytes32)": {
        "details": "See {IGovernor-queue}."
      },
      "quorumDenominator()": {
        "details": "Returns the quorum denominator. Defaults to 100, but may be overridden."
      },
      "quorumNumerator()": {
        "details": "Returns the current quorum numerator. See {quorumDenominator}."
      },
      "quorumNumerator(uint256)": {
        "details": "Returns the quorum numerator at a specific timepoint. See {quorumDenominator}."
      },
      "relay(address,uint256,bytes)": {
        "details": "Relays a transaction or function call to an arbitrary target. In cases where the governance executor is some contract other than the governor itself, like when using a timelock, this function can be invoked in a governance proposal to recover tokens or Ether that was sent to the governor contract by mistake. Note that if the executor is simply the governor itself, use of `relay` is redundant."
      },
      "setProposalThreshold(uint256)": {
        "details": "Update the proposal threshold. This operation can only be performed through a governance proposal. Emits a {ProposalThresholdSet} event."
      },
      "setVotingDelay(uint48)": {
        "details": "Update the voting delay. This operation can only be performed through a governance proposal. Emits a {VotingDelaySet} event."
      },
      "setVotingPeriod(uint32)": {
        "details": "Update the voting period. This operation can only be performed through a governance proposal. Emits a {VotingPeriodSet} event."
      },
      "supportsInterface(bytes4)": {
        "details": "See {IERC165-supportsInterface}."
      },
      "timelock()": {
        "details": "Public accessor to check the address of the timelock"
      },
      "token()": {
        "details": "The token that voting power is sourced from."
      },
      "updateQuorumNumerator(uint256)": {
        "details": "Changes the quorum numerator. Emits a {QuorumNumeratorUpdated} event. Requirements: - Must be called through a governance proposal. - New numerator must be smaller or equal to the denominator."
      },
      "updateTimelock(address)": {
        "details": "Public endpoint to update the underlying timelock instance. Restricted to the timelock itself, so updates must be proposed, scheduled, and executed through governance proposals. CAUTION: It is not recommended to change the timelock while there are other queued governance proposals."
      },
      "version()": {
        "details": "See {IGovernor-version}."
      }
    },
    "version": 1
  },
  "userdoc": {
    "kind": "user",
    "methods": {},
    "version": 1
  },
  "storageLayout": {
    "storage": [
      {
        "astId": 8137,
        "contract": "contracts/governance_standard/GovernorContract.sol:GovernorContract",
        "label": "_nameFallback",
        "offset": 0,
        "slot": "0",
        "type": "t_string_storage"
      },
      {
        "astId": 8139,
        "contract": "contracts/governance_standard/GovernorContract.sol:GovernorContract",
        "label": "_versionFallback",
        "offset": 0,
        "slot": "1",
        "type": "t_string_storage"
      },
      {
        "astId": 7116,
        "contract": "contracts/governance_standard/GovernorContract.sol:GovernorContract",
        "label": "_nonces",
        "offset": 0,
        "slot": "2",
        "type": "t_mapping(t_address,t_uint256)"
      },
      {
        "astId": 616,
        "contract": "contracts/governance_standard/GovernorContract.sol:GovernorContract",
        "label": "_name",
        "offset": 0,
        "slot": "3",
        "type": "t_string_storage"
      },
      {
        "astId": 621,
        "contract": "contracts/governance_standard/GovernorContract.sol:GovernorContract",
        "label": "_proposals",
        "offset": 0,
        "slot": "4",
        "type": "t_mapping(t_uint256,t_struct(ProposalCore)594_storage)"
      },
      {
        "astId": 624,
        "contract": "contracts/governance_standard/GovernorContract.sol:GovernorContract",
        "label": "_governanceCall",
        "offset": 0,
        "slot": "5",
        "type": "t_struct(Bytes32Deque)13046_storage"
      },
      {
        "astId": 4046,
        "contract": "contracts/governance_standard/GovernorContract.sol:GovernorContract",
        "label": "_proposalThreshold",
        "offset": 0,
        "slot": "7",
        "type": "t_uint256"
      },
      {
        "astId": 4048,
        "contract": "contracts/governance_standard/GovernorContract.sol:GovernorContract",
        "label": "_votingDelay",
        "offset": 0,
        "slot": "8",
        "type": "t_uint48"
      },
      {
        "astId": 4050,
        "contract": "contracts/governance_standard/GovernorContract.sol:GovernorContract",
        "label": "_votingPeriod",
        "offset": 6,
        "slot": "8",
        "type": "t_uint32"
      },
      {
        "astId": 3837,
        "contract": "contracts/governance_standard/GovernorContract.sol:GovernorContract",
        "label": "_proposalVotes",
        "offset": 0,
        "slot": "9",
        "type": "t_mapping(t_uint256,t_struct(ProposalVote)3832_storage)"
      },
      {
        "astId": 4697,
        "contract": "contracts/governance_standard/GovernorContract.sol:GovernorContract",
        "label": "_quorumNumeratorHistory",
        "offset": 0,
        "slot": "10",
        "type": "t_struct(Trace208)11986_storage"
      },
      {
        "astId": 4235,
        "contract": "contracts/governance_standard/GovernorContract.sol:GovernorContract",
        "label": "_timelock",
        "offset": 0,
        "slot": "11",
        "type": "t_contract(TimelockController)3809"
      },
      {
        "astId": 4239,
        "contract": "contracts/governance_standard/GovernorContract.sol:GovernorContract",
        "label": "_timelockIds",
        "offset": 0,
        "slot": "12",
        "type": "t_mapping(t_uint256,t_bytes32)"
      }
    ],
    "types": {
      "t_address": {
        "encoding": "inplace",
        "label": "address",
        "numberOfBytes": "20"
      },
      "t_array(t_struct(Checkpoint208)11991_storage)dyn_storage": {
        "base": "t_struct(Checkpoint208)11991_storage",
        "encoding": "dynamic_array",
        "label": "struct Checkpoints.Checkpoint208[]",
        "numberOfBytes": "32"
      },
      "t_bool": {
        "encoding": "inplace",
        "label": "bool",
        "numberOfBytes": "1"
      },
      "t_bytes32": {
        "encoding": "inplace",
        "label": "bytes32",
        "numberOfBytes": "32"
      },
      "t_contract(TimelockController)3809": {
        "encoding": "inplace",
        "label": "contract TimelockController",
        "numberOfBytes": "20"
      },
      "t_mapping(t_address,t_bool)": {
        "encoding": "mapping",
        "key": "t_address",
        "label": "mapping(address => bool)",
        "numberOfBytes": "32",
        "value": "t_bool"
      },
      "t_mapping(t_address,t_uint256)": {
        "encoding": "mapping",
        "key": "t_address",
        "label": "mapping(address => uint256)",
        "numberOfBytes": "32",
        "value": "t_uint256"
      },
      "t_mapping(t_uint128,t_bytes32)": {
        "encoding": "mapping",
        "key": "t_uint128",
        "label": "mapping(uint128 => bytes32)",
        "numberOfBytes": "32",
        "value": "t_bytes32"
      },
      "t_mapping(t_uint256,t_bytes32)": {
        "encoding": "mapping",
        "key": "t_uint256",
        "label": "mapping(uint256 => bytes32)",
        "numberOfBytes": "32",
        "value": "t_bytes32"
      },
      "t_mapping(t_uint256,t_struct(ProposalCore)594_storage)": {
        "encoding": "mapping",
        "key": "t_uint256",
        "label": "mapping(uint256 => struct Governor.ProposalCore)",
        "numberOfBytes": "32",
        "value": "t_struct(ProposalCore)594_storage"
      },
      "t_mapping(t_uint256,t_struct(ProposalVote)3832_storage)": {
        "encoding": "mapping",
        "key": "t_uint256",
        "label": "mapping(uint256 => struct GovernorCountingSimple.ProposalVote)",
        "numberOfBytes": "32",
        "value": "t_struct(ProposalVote)3832_storage"
      },
      "t_string_storage": {
        "encoding": "bytes",
        "label": "string",
        "numberOfBytes": "32"
      },
      "t_struct(Bytes32Deque)13046_storage": {
        "encoding": "inplace",
        "label": "struct DoubleEndedQueue.Bytes32Deque",
        "members": [
          {
            "astId": 13039,
            "contract": "contracts/governance_standard/GovernorContract.sol:GovernorContract",
            "label": "_begin",
            "offset": 0,
            "slot": "0",
            "type": "t_uint128"
          },
          {
            "astId": 13041,
            "contract": "contracts/governance_standard/GovernorContract.sol:GovernorContract",
            "label": "_end",
            "offset": 16,
            "slot": "0",
            "type": "t_uint128"
          },
          {
            "astId": 13045,
            "contract": "contracts/governance_standard/GovernorContract.sol:GovernorContract",
            "label": "_data",
            "offset": 0,
            "slot": "1",
            "type": "t_mapping(t_uint128,t_bytes32)"
          }
        ],
        "numberOfBytes": "64"
      },
      "t_struct(Checkpoint208)11991_storage": {
        "encoding": "inplace",
        "label": "struct Checkpoints.Checkpoint208",
        "members": [
          {
            "astId": 11988,
            "contract": "contracts/governance_standard/GovernorContract.sol:GovernorContract",
            "label": "_key",
            "offset": 0,
            "slot": "0",
            "type": "t_uint48"
          },
          {
            "astId": 11990,
            "contract": "contracts/governance_standard/GovernorContract.sol:GovernorContract",
            "label": "_value",
            "offset": 6,
            "slot": "0",
            "type": "t_uint208"
          }
        ],
        "numberOfBytes": "32"
      },
      "t_struct(ProposalCore)594_storage": {
        "encoding": "inplace",
        "label": "struct Governor.ProposalCore",
        "members": [
          {
            "astId": 583,
            "contract": "contracts/governance_standard/GovernorContract.sol:GovernorContract",
            "label": "proposer",
            "offset": 0,
            "slot": "0",
            "type": "t_address"
          },
          {
            "astId": 585,
            "contract": "contracts/governance_standard/GovernorContract.sol:GovernorContract",
            "label": "voteStart",
            "offset": 20,
            "slot": "0",
            "type": "t_uint48"
          },
          {
            "astId": 587,
            "contract": "contracts/governance_standard/GovernorContract.sol:GovernorContract",
            "label": "voteDuration",
            "offset": 26,
            "slot": "0",
            "type": "t_uint32"
          },
          {
            "astId": 589,
            "contract": "contracts/governance_standard/GovernorContract.sol:GovernorContract",
            "label": "executed",
            "offset": 30,
            "slot": "0",
            "type": "t_bool"
          },
          {
            "astId": 591,
            "contract": "contracts/governance_standard/GovernorContract.sol:GovernorContract",
            "label": "canceled",
            "offset": 31,
            "slot": "0",
            "type": "t_bool"
          },
          {
            "astId": 593,
            "contract": "contracts/governance_standard/GovernorContract.sol:GovernorContract",
            "label": "etaSeconds",
            "offset": 0,
            "slot": "1",
            "type": "t_uint48"
          }
        ],
        "numberOfBytes": "64"
      },
      "t_struct(ProposalVote)3832_storage": {
        "encoding": "inplace",
        "label": "struct GovernorCountingSimple.ProposalVote",
        "members": [
          {
            "astId": 3823,
            "contract": "contracts/governance_standard/GovernorContract.sol:GovernorContract",
            "label": "againstVotes",
            "offset": 0,
            "slot": "0",
            "type": "t_uint256"
          },
          {
            "astId": 3825,
            "contract": "contracts/governance_standard/GovernorContract.sol:GovernorContract",
            "label": "forVotes",
            "offset": 0,
            "slot": "1",
            "type": "t_uint256"
          },
          {
            "astId": 3827,
            "contract": "contracts/governance_standard/GovernorContract.sol:GovernorContract",
            "label": "abstainVotes",
            "offset": 0,
            "slot": "2",
            "type": "t_uint256"
          },
          {
            "astId": 3831,
            "contract": "contracts/governance_standard/GovernorContract.sol:GovernorContract",
            "label": "hasVoted",
            "offset": 0,
            "slot": "3",
            "type": "t_mapping(t_address,t_bool)"
          }
        ],
        "numberOfBytes": "128"
      },
      "t_struct(Trace208)11986_storage": {
        "encoding": "inplace",
        "label": "struct Checkpoints.Trace208",
        "members": [
          {
            "astId": 11985,
            "contract": "contracts/governance_standard/GovernorContract.sol:GovernorContract",
            "label": "_checkpoints",
            "offset": 0,
            "slot": "0",
            "type": "t_array(t_struct(Checkpoint208)11991_storage)dyn_storage"
          }
        ],
        "numberOfBytes": "32"
      },
      "t_uint128": {
        "encoding": "inplace",
        "label": "uint128",
        "numberOfBytes": "16"
      },
      "t_uint208": {
        "encoding": "inplace",
        "label": "uint208",
        "numberOfBytes": "26"
      },
      "t_uint256": {
        "encoding": "inplace",
        "label": "uint256",
        "numberOfBytes": "32"
      },
      "t_uint32": {
        "encoding": "inplace",
        "label": "uint32",
        "numberOfBytes": "4"
      },
      "t_uint48": {
        "encoding": "inplace",
        "label": "uint48",
        "numberOfBytes": "6"
      }
    }
  }
}